{
  "_format": "hh-sol-artifact-1",
  "contractName": "Ticket",
  "sourceName": "contracts/Ticket.sol",
  "abi": [
    {
      "inputs": [],
      "stateMutability": "payable",
      "type": "constructor"
    },
    {
      "anonymous": false,
      "inputs": [
        {
          "indexed": true,
          "internalType": "address",
          "name": "owner",
          "type": "address"
        },
        {
          "indexed": true,
          "internalType": "address",
          "name": "approved",
          "type": "address"
        },
        {
          "indexed": true,
          "internalType": "uint256",
          "name": "tokenId",
          "type": "uint256"
        }
      ],
      "name": "Approval",
      "type": "event"
    },
    {
      "anonymous": false,
      "inputs": [
        {
          "indexed": true,
          "internalType": "address",
          "name": "owner",
          "type": "address"
        },
        {
          "indexed": true,
          "internalType": "address",
          "name": "operator",
          "type": "address"
        },
        {
          "indexed": false,
          "internalType": "bool",
          "name": "approved",
          "type": "bool"
        }
      ],
      "name": "ApprovalForAll",
      "type": "event"
    },
    {
      "anonymous": false,
      "inputs": [
        {
          "indexed": true,
          "internalType": "address",
          "name": "from",
          "type": "address"
        },
        {
          "indexed": true,
          "internalType": "address",
          "name": "to",
          "type": "address"
        },
        {
          "indexed": true,
          "internalType": "uint256",
          "name": "tokenId",
          "type": "uint256"
        }
      ],
      "name": "Transfer",
      "type": "event"
    },
    {
      "anonymous": false,
      "inputs": [
        {
          "indexed": false,
          "internalType": "address",
          "name": "_addresss",
          "type": "address"
        },
        {
          "indexed": true,
          "internalType": "uint256",
          "name": "_tId",
          "type": "uint256"
        }
      ],
      "name": "registerEvent",
      "type": "event"
    },
    {
      "anonymous": false,
      "inputs": [
        {
          "indexed": false,
          "internalType": "address",
          "name": "_from",
          "type": "address"
        },
        {
          "indexed": false,
          "internalType": "address",
          "name": "_to",
          "type": "address"
        },
        {
          "indexed": true,
          "internalType": "uint256",
          "name": "_tId",
          "type": "uint256"
        }
      ],
      "name": "transferEvent",
      "type": "event"
    },
    {
      "inputs": [
        {
          "internalType": "address",
          "name": "to",
          "type": "address"
        },
        {
          "internalType": "uint256",
          "name": "tokenId",
          "type": "uint256"
        }
      ],
      "name": "approve",
      "outputs": [],
      "stateMutability": "nonpayable",
      "type": "function"
    },
    {
      "inputs": [
        {
          "internalType": "address",
          "name": "owner",
          "type": "address"
        }
      ],
      "name": "balanceOf",
      "outputs": [
        {
          "internalType": "uint256",
          "name": "",
          "type": "uint256"
        }
      ],
      "stateMutability": "view",
      "type": "function"
    },
    {
      "inputs": [
        {
          "internalType": "uint256",
          "name": "tokenId",
          "type": "uint256"
        }
      ],
      "name": "getApproved",
      "outputs": [
        {
          "internalType": "address",
          "name": "",
          "type": "address"
        }
      ],
      "stateMutability": "view",
      "type": "function"
    },
    {
      "inputs": [
        {
          "internalType": "uint256",
          "name": "_tId",
          "type": "uint256"
        }
      ],
      "name": "getSubscriber",
      "outputs": [
        {
          "internalType": "address",
          "name": "",
          "type": "address"
        }
      ],
      "stateMutability": "view",
      "type": "function"
    },
    {
      "inputs": [
        {
          "internalType": "uint256",
          "name": "_tId",
          "type": "uint256"
        }
      ],
      "name": "getTicketDetails",
      "outputs": [
        {
          "components": [
            {
              "internalType": "uint256",
              "name": "ticketNum",
              "type": "uint256"
            },
            {
              "internalType": "address",
              "name": "subscriber",
              "type": "address"
            },
            {
              "internalType": "string",
              "name": "planName",
              "type": "string"
            },
            {
              "internalType": "uint256",
              "name": "planId",
              "type": "uint256"
            },
            {
              "internalType": "uint256",
              "name": "subscriptionCost",
              "type": "uint256"
            },
            {
              "internalType": "uint256",
              "name": "subscriptionStart",
              "type": "uint256"
            },
            {
              "internalType": "uint256",
              "name": "subscriptionEnd",
              "type": "uint256"
            },
            {
              "internalType": "uint32",
              "name": "transferCount",
              "type": "uint32"
            }
          ],
          "internalType": "struct Ticket.ticketDetails",
          "name": "",
          "type": "tuple"
        }
      ],
      "stateMutability": "view",
      "type": "function"
    },
    {
      "inputs": [
        {
          "internalType": "address",
          "name": "",
          "type": "address"
        }
      ],
      "name": "hasTicket",
      "outputs": [
        {
          "internalType": "bool",
          "name": "",
          "type": "bool"
        }
      ],
      "stateMutability": "view",
      "type": "function"
    },
    {
      "inputs": [
        {
          "internalType": "address",
          "name": "owner",
          "type": "address"
        },
        {
          "internalType": "address",
          "name": "operator",
          "type": "address"
        }
      ],
      "name": "isApprovedForAll",
      "outputs": [
        {
          "internalType": "bool",
          "name": "",
          "type": "bool"
        }
      ],
      "stateMutability": "view",
      "type": "function"
    },
    {
      "inputs": [],
      "name": "name",
      "outputs": [
        {
          "internalType": "string",
          "name": "",
          "type": "string"
        }
      ],
      "stateMutability": "view",
      "type": "function"
    },
    {
      "inputs": [
        {
          "internalType": "uint256",
          "name": "tokenId",
          "type": "uint256"
        }
      ],
      "name": "ownerOf",
      "outputs": [
        {
          "internalType": "address",
          "name": "",
          "type": "address"
        }
      ],
      "stateMutability": "view",
      "type": "function"
    },
    {
      "inputs": [],
      "name": "register",
      "outputs": [],
      "stateMutability": "nonpayable",
      "type": "function"
    },
    {
      "inputs": [
        {
          "internalType": "address",
          "name": "from",
          "type": "address"
        },
        {
          "internalType": "address",
          "name": "to",
          "type": "address"
        },
        {
          "internalType": "uint256",
          "name": "tokenId",
          "type": "uint256"
        }
      ],
      "name": "safeTransferFrom",
      "outputs": [],
      "stateMutability": "nonpayable",
      "type": "function"
    },
    {
      "inputs": [
        {
          "internalType": "address",
          "name": "from",
          "type": "address"
        },
        {
          "internalType": "address",
          "name": "to",
          "type": "address"
        },
        {
          "internalType": "uint256",
          "name": "tokenId",
          "type": "uint256"
        },
        {
          "internalType": "bytes",
          "name": "_data",
          "type": "bytes"
        }
      ],
      "name": "safeTransferFrom",
      "outputs": [],
      "stateMutability": "nonpayable",
      "type": "function"
    },
    {
      "inputs": [
        {
          "internalType": "address",
          "name": "operator",
          "type": "address"
        },
        {
          "internalType": "bool",
          "name": "approved",
          "type": "bool"
        }
      ],
      "name": "setApprovalForAll",
      "outputs": [],
      "stateMutability": "nonpayable",
      "type": "function"
    },
    {
      "inputs": [
        {
          "internalType": "bytes4",
          "name": "interfaceId",
          "type": "bytes4"
        }
      ],
      "name": "supportsInterface",
      "outputs": [
        {
          "internalType": "bool",
          "name": "",
          "type": "bool"
        }
      ],
      "stateMutability": "view",
      "type": "function"
    },
    {
      "inputs": [],
      "name": "symbol",
      "outputs": [
        {
          "internalType": "string",
          "name": "",
          "type": "string"
        }
      ],
      "stateMutability": "view",
      "type": "function"
    },
    {
      "inputs": [
        {
          "internalType": "uint256",
          "name": "",
          "type": "uint256"
        }
      ],
      "name": "tickets",
      "outputs": [
        {
          "internalType": "uint256",
          "name": "ticketNum",
          "type": "uint256"
        },
        {
          "internalType": "address",
          "name": "subscriber",
          "type": "address"
        },
        {
          "internalType": "string",
          "name": "planName",
          "type": "string"
        },
        {
          "internalType": "uint256",
          "name": "planId",
          "type": "uint256"
        },
        {
          "internalType": "uint256",
          "name": "subscriptionCost",
          "type": "uint256"
        },
        {
          "internalType": "uint256",
          "name": "subscriptionStart",
          "type": "uint256"
        },
        {
          "internalType": "uint256",
          "name": "subscriptionEnd",
          "type": "uint256"
        },
        {
          "internalType": "uint32",
          "name": "transferCount",
          "type": "uint32"
        }
      ],
      "stateMutability": "view",
      "type": "function"
    },
    {
      "inputs": [
        {
          "internalType": "uint256",
          "name": "tokenId",
          "type": "uint256"
        }
      ],
      "name": "tokenURI",
      "outputs": [
        {
          "internalType": "string",
          "name": "",
          "type": "string"
        }
      ],
      "stateMutability": "view",
      "type": "function"
    },
    {
      "inputs": [
        {
          "internalType": "address",
          "name": "from",
          "type": "address"
        },
        {
          "internalType": "address",
          "name": "to",
          "type": "address"
        },
        {
          "internalType": "uint256",
          "name": "tokenId",
          "type": "uint256"
        }
      ],
      "name": "transferFrom",
      "outputs": [],
      "stateMutability": "nonpayable",
      "type": "function"
    },
    {
      "inputs": [
        {
          "internalType": "uint256",
          "name": "_tId",
          "type": "uint256"
        },
        {
          "internalType": "address",
          "name": "_transferTo",
          "type": "address"
        }
      ],
      "name": "transferTicket",
      "outputs": [],
      "stateMutability": "nonpayable",
      "type": "function"
    },
    {
      "inputs": [
        {
          "internalType": "uint256",
          "name": "_tId",
          "type": "uint256"
        },
        {
          "internalType": "string",
          "name": "_planName",
          "type": "string"
        },
        {
          "internalType": "uint256",
          "name": "_planId",
          "type": "uint256"
        },
        {
          "internalType": "uint256",
          "name": "_subscriptionCost",
          "type": "uint256"
        },
        {
          "internalType": "uint256",
          "name": "_subscriptionStart",
          "type": "uint256"
        },
        {
          "internalType": "uint256",
          "name": "_subscriptionEnd",
          "type": "uint256"
        }
      ],
      "name": "updateTicketDetails",
      "outputs": [],
      "stateMutability": "nonpayable",
      "type": "function"
    }
  ],
  "bytecode": "0x608060405260405180610da00160405280610d79815260200162004dfc610d799139600a90805190602001906200003892919062000244565b506040518060400160405280600d81526020017f3c2f746578743e3c2f7376673e00000000000000000000000000000000000000815250600b90805190602001906200008692919062000244565b506040518060400160405280600781526020017f5469636b657473000000000000000000000000000000000000000000000000008152506040518060400160405280600481526020017f5449434b0000000000000000000000000000000000000000000000000000000081525081600090805190602001906200010b92919062000244565b5080600190805190602001906200012492919062000244565b505050620001726040518060400160405280601381526020017f5469636b65742e736f6c206465706c6f796564000000000000000000000000008152506200017860201b620015661760201c565b62000421565b62000218816040516024016200018f919062000398565b6040516020818303038152906040527f41304fac000000000000000000000000000000000000000000000000000000007bffffffffffffffffffffffffffffffffffffffffffffffffffffffff19166020820180517bffffffffffffffffffffffffffffffffffffffffffffffffffffffff83818316178352505050506200021b60201b60201c565b50565b60008151905060006a636f6e736f6c652e6c6f679050602083016000808483855afa5050505050565b8280546200025290620003eb565b90600052602060002090601f016020900481019282620002765760008555620002c2565b82601f106200029157805160ff1916838001178555620002c2565b82800160010185558215620002c2579182015b82811115620002c1578251825591602001919060010190620002a4565b5b509050620002d19190620002d5565b5090565b5b80821115620002f0576000816000905550600101620002d6565b5090565b600081519050919050565b600082825260208201905092915050565b60005b838110156200033057808201518184015260208101905062000313565b8381111562000340576000848401525b50505050565b6000601f19601f8301169050919050565b60006200036482620002f4565b620003708185620002ff565b93506200038281856020860162000310565b6200038d8162000346565b840191505092915050565b60006020820190508181036000830152620003b4818462000357565b905092915050565b7f4e487b7100000000000000000000000000000000000000000000000000000000600052602260045260246000fd5b600060028204905060018216806200040457607f821691505b602082108114156200041b576200041a620003bc565b5b50919050565b6149cb80620004316000396000f3fe608060405234801561001057600080fd5b506004361061012c5760003560e01c806350b44712116100ad578063a22cb46511610071578063a22cb4651461035a578063b88d4fde14610376578063c87b56dd14610392578063e2142fde146103c2578063e985e9c5146103f25761012c565b806350b44712146102895780636352211e146102c0578063679ebf1a146102f057806370a082311461030c57806395d89b411461033c5761012c565b806323b872dd116100f457806323b872dd146101d557806324c14160146101f157806325df1e77146102215780633f41cdd01461025157806342842e0e1461026d5761012c565b806301ffc9a71461013157806306fdde0314610161578063081812fc1461017f578063095ea7b3146101af5780631aa3a008146101cb575b600080fd5b61014b60048036038101906101469190612c5c565b610422565b6040516101589190612ca4565b60405180910390f35b610169610504565b6040516101769190612d58565b60405180910390f35b61019960048036038101906101949190612db0565b610596565b6040516101a69190612e1e565b60405180910390f35b6101c960048036038101906101c49190612e65565b61061b565b005b6101d3610733565b005b6101ef60048036038101906101ea9190612ea5565b610a80565b005b61020b60048036038101906102069190612db0565b610ae0565b604051610218919061302f565b60405180910390f35b61023b60048036038101906102369190612db0565b610c4e565b6040516102489190612e1e565b60405180910390f35b61026b600480360381019061026691906130b6565b610c8e565b005b61028760048036038101906102829190612ea5565b610d2d565b005b6102a3600480360381019061029e9190612db0565b610d4d565b6040516102b7989796959493929190613183565b60405180910390f35b6102da60048036038101906102d59190612db0565b610e4d565b6040516102e79190612e1e565b60405180910390f35b61030a60048036038101906103059190613208565b610eff565b005b61032660048036038101906103219190613248565b61119e565b6040516103339190613275565b60405180910390f35b610344611256565b6040516103519190612d58565b60405180910390f35b610374600480360381019061036f91906132bc565b6112e8565b005b610390600480360381019061038b919061342c565b6112fe565b005b6103ac60048036038101906103a79190612db0565b611360565b6040516103b99190612d58565b60405180910390f35b6103dc60048036038101906103d79190613248565b6114b2565b6040516103e99190612ca4565b60405180910390f35b61040c600480360381019061040791906134af565b6114d2565b6040516104199190612ca4565b60405180910390f35b60007f80ac58cd000000000000000000000000000000000000000000000000000000007bffffffffffffffffffffffffffffffffffffffffffffffffffffffff1916827bffffffffffffffffffffffffffffffffffffffffffffffffffffffff191614806104ed57507f5b5e139f000000000000000000000000000000000000000000000000000000007bffffffffffffffffffffffffffffffffffffffffffffffffffffffff1916827bffffffffffffffffffffffffffffffffffffffffffffffffffffffff1916145b806104fd57506104fc826115ff565b5b9050919050565b6060600080546105139061351e565b80601f016020809104026020016040519081016040528092919081815260200182805461053f9061351e565b801561058c5780601f106105615761010080835404028352916020019161058c565b820191906000526020600020905b81548152906001019060200180831161056f57829003601f168201915b5050505050905090565b60006105a182611669565b6105e0576040517f08c379a00000000000000000000000000000000000000000000000000000000081526004016105d7906135c2565b60405180910390fd5b6004600083815260200190815260200160002060009054906101000a900473ffffffffffffffffffffffffffffffffffffffff169050919050565b600061062682610e4d565b90508073ffffffffffffffffffffffffffffffffffffffff168373ffffffffffffffffffffffffffffffffffffffff161415610697576040517f08c379a000000000000000000000000000000000000000000000000000000000815260040161068e90613654565b60405180910390fd5b8073ffffffffffffffffffffffffffffffffffffffff166106b66116d5565b73ffffffffffffffffffffffffffffffffffffffff1614806106e557506106e4816106df6116d5565b6114d2565b5b610724576040517f08c379a000000000000000000000000000000000000000000000000000000000815260040161071b906136e6565b60405180910390fd5b61072e83836116dd565b505050565b60001515600960003373ffffffffffffffffffffffffffffffffffffffff1673ffffffffffffffffffffffffffffffffffffffff16815260200190815260200160002060009054906101000a900460ff161515146107c6576040517f08c379a00000000000000000000000000000000000000000000000000000000081526004016107bd90613752565b60405180910390fd5b600060016107d46007611796565b6107de91906137a1565b90506000600860008381526020019081526020016000209050818160000181905550338160010160006101000a81548173ffffffffffffffffffffffffffffffffffffffff021916908373ffffffffffffffffffffffffffffffffffffffff1602179055506040518060400160405280600e81526020017f4e6f2041637469766520506c616e000000000000000000000000000000000000815250816002019080519060200190610890929190612a66565b5060006108a082600001546117a4565b90506000600a82600b6040516020016108bb939291906138c7565b60405160208183030381529060405290506000610900836108db8461186d565b6040516020016108ec929190613a4e565b60405160208183030381529060405261186d565b90506000816040516020016109159190613adf565b60405160208183030381529060405290506109476040518060600160405280603981526020016148bb60399139611566565b6109866040518060400160405280601081526020017f66696e616c546f6b656e555249203d200000000000000000000000000000000081525082611a05565b6109a76040518060600160405280603981526020016148f460399139611566565b6109b13387611aa1565b6109bb8682611abf565b6001600960003373ffffffffffffffffffffffffffffffffffffffff1673ffffffffffffffffffffffffffffffffffffffff16815260200190815260200160002060006101000a81548160ff021916908315150217905550610a3660405180606001604052806029815260200161496d602991398533611b33565b857f45d3ff9b6ce572742ea4a64ce7ec2e69e3b16a10d34058badf3ec27a5d938c6133604051610a669190612e1e565b60405180910390a2610a786007611bd2565b505050505050565b610a91610a8b6116d5565b82611be8565b610ad0576040517f08c379a0000000000000000000000000000000000000000000000000000000008152600401610ac790613b73565b60405180910390fd5b610adb838383611cc6565b505050565b610ae8612aec565b6008600083815260200190815260200160002060405180610100016040529081600082015481526020016001820160009054906101000a900473ffffffffffffffffffffffffffffffffffffffff1673ffffffffffffffffffffffffffffffffffffffff1673ffffffffffffffffffffffffffffffffffffffff168152602001600282018054610b779061351e565b80601f0160208091040260200160405190810160405280929190818152602001828054610ba39061351e565b8015610bf05780601f10610bc557610100808354040283529160200191610bf0565b820191906000526020600020905b815481529060010190602001808311610bd357829003601f168201915b50505050508152602001600382015481526020016004820154815260200160058201548152602001600682015481526020016007820160009054906101000a900463ffffffff1663ffffffff1663ffffffff16815250509050919050565b60006008600083815260200190815260200160002060010160009054906101000a900473ffffffffffffffffffffffffffffffffffffffff169050919050565b600060086000898152602001908152602001600020905042816006015410610ceb576040517f08c379a0000000000000000000000000000000000000000000000000000000008152600401610ce290613c05565b60405180910390fd5b8686826002019190610cfe929190612b4d565b508481600301819055508381600401819055508281600501819055508181600601819055505050505050505050565b610d48838383604051806020016040528060008152506112fe565b505050565b60086020528060005260406000206000915090508060000154908060010160009054906101000a900473ffffffffffffffffffffffffffffffffffffffff1690806002018054610d9c9061351e565b80601f0160208091040260200160405190810160405280929190818152602001828054610dc89061351e565b8015610e155780601f10610dea57610100808354040283529160200191610e15565b820191906000526020600020905b815481529060010190602001808311610df857829003601f168201915b5050505050908060030154908060040154908060050154908060060154908060070160009054906101000a900463ffffffff16905088565b6000806002600084815260200190815260200160002060009054906101000a900473ffffffffffffffffffffffffffffffffffffffff169050600073ffffffffffffffffffffffffffffffffffffffff168173ffffffffffffffffffffffffffffffffffffffff161415610ef6576040517f08c379a0000000000000000000000000000000000000000000000000000000008152600401610eed90613c97565b60405180910390fd5b80915050919050565b8160006008600083815260200190815260200160002090503373ffffffffffffffffffffffffffffffffffffffff168160010160009054906101000a900473ffffffffffffffffffffffffffffffffffffffff1673ffffffffffffffffffffffffffffffffffffffff1614610fa9576040517f08c379a0000000000000000000000000000000000000000000000000000000008152600401610fa090613d29565b60405180910390fd5b600060086000868152602001908152602001600020905060028160070160009054906101000a900463ffffffff1663ffffffff161061101d576040517f08c379a000000000000000000000000000000000000000000000000000000000815260040161101490613dbb565b60405180910390fd5b611028338587610d2d565b60018160070160008282829054906101000a900463ffffffff1661104c9190613ddb565b92506101000a81548163ffffffff021916908363ffffffff160217905550838160010160006101000a81548173ffffffffffffffffffffffffffffffffffffffff021916908373ffffffffffffffffffffffffffffffffffffffff1602179055506000600960003373ffffffffffffffffffffffffffffffffffffffff1673ffffffffffffffffffffffffffffffffffffffff16815260200190815260200160002060006101000a81548160ff0219169083151502179055506001600960008673ffffffffffffffffffffffffffffffffffffffff1673ffffffffffffffffffffffffffffffffffffffff16815260200190815260200160002060006101000a81548160ff021916908315150217905550847f5d439cf3a1f6215b41908e5b0b300f39679a3ff1cc010691c1d4ec4d0e2a4ebb338660405161118f929190613e15565b60405180910390a25050505050565b60008073ffffffffffffffffffffffffffffffffffffffff168273ffffffffffffffffffffffffffffffffffffffff16141561120f576040517f08c379a000000000000000000000000000000000000000000000000000000000815260040161120690613eb0565b60405180910390fd5b600360008373ffffffffffffffffffffffffffffffffffffffff1673ffffffffffffffffffffffffffffffffffffffff168152602001908152602001600020549050919050565b6060600180546112659061351e565b80601f01602080910402602001604051908101604052809291908181526020018280546112919061351e565b80156112de5780601f106112b3576101008083540402835291602001916112de565b820191906000526020600020905b8154815290600101906020018083116112c157829003601f168201915b5050505050905090565b6112fa6112f36116d5565b8383611f2d565b5050565b61130f6113096116d5565b83611be8565b61134e576040517f08c379a000000000000000000000000000000000000000000000000000000000815260040161134590613b73565b60405180910390fd5b61135a8484848461209a565b50505050565b606061136b82611669565b6113aa576040517f08c379a00000000000000000000000000000000000000000000000000000000081526004016113a190613f42565b60405180910390fd5b60006006600084815260200190815260200160002080546113ca9061351e565b80601f01602080910402602001604051908101604052809291908181526020018280546113f69061351e565b80156114435780601f1061141857610100808354040283529160200191611443565b820191906000526020600020905b81548152906001019060200180831161142657829003601f168201915b5050505050905060006114546120f6565b905060008151141561146a5781925050506114ad565b60008251111561149f578082604051602001611487929190613f62565b604051602081830303815290604052925050506114ad565b6114a88461210d565b925050505b919050565b60096020528060005260406000206000915054906101000a900460ff1681565b6000600560008473ffffffffffffffffffffffffffffffffffffffff1673ffffffffffffffffffffffffffffffffffffffff16815260200190815260200160002060008373ffffffffffffffffffffffffffffffffffffffff1673ffffffffffffffffffffffffffffffffffffffff16815260200190815260200160002060009054906101000a900460ff16905092915050565b6115fc8160405160240161157a9190612d58565b6040516020818303038152906040527f41304fac000000000000000000000000000000000000000000000000000000007bffffffffffffffffffffffffffffffffffffffffffffffffffffffff19166020820180517bffffffffffffffffffffffffffffffffffffffffffffffffffffffff83818316178352505050506121b4565b50565b60007f01ffc9a7000000000000000000000000000000000000000000000000000000007bffffffffffffffffffffffffffffffffffffffffffffffffffffffff1916827bffffffffffffffffffffffffffffffffffffffffffffffffffffffff1916149050919050565b60008073ffffffffffffffffffffffffffffffffffffffff166002600084815260200190815260200160002060009054906101000a900473ffffffffffffffffffffffffffffffffffffffff1673ffffffffffffffffffffffffffffffffffffffff1614159050919050565b600033905090565b816004600083815260200190815260200160002060006101000a81548173ffffffffffffffffffffffffffffffffffffffff021916908373ffffffffffffffffffffffffffffffffffffffff160217905550808273ffffffffffffffffffffffffffffffffffffffff1661175083610e4d565b73ffffffffffffffffffffffffffffffffffffffff167f8c5be1e5ebec7d5bd14f71427d1e84f3dd0314c0f7b2291e5b200ac8c7c3b92560405160405180910390a45050565b600081600001549050919050565b606060006117b1836121dd565b905060006117be82612366565b9050606060038211156117d357829050611862565b600282111561180357826040516020016117ed9190613fd2565b6040516020818303038152906040529050611861565b6001821115611833578260405160200161181d9190614040565b6040516020818303038152906040529050611860565b600082111561185f578260405160200161184d91906140ae565b60405160208183030381529060405290505b5b5b5b809350505050919050565b606060008251905060008114156118965760405180602001604052806000815250915050611a00565b600060036002836118a791906137a1565b6118b191906140ff565b60046118bd9190614130565b905060006020826118ce91906137a1565b67ffffffffffffffff8111156118e7576118e6613301565b5b6040519080825280601f01601f1916602001820160405280156119195781602001600182028036833780820191505090505b509050600060405180606001604052806040815260200161492d604091399050600181016020830160005b868110156119bd5760038101905062ffffff818a015116603f8160121c168401518060081b905060ff603f83600c1c1686015116810190508060081b905060ff603f8360061c1686015116810190508060081b905060ff603f831686015116810190508060e01b90508084526004840193505050611944565b5060038606600181146119d757600281146119e7576119f2565b613d3d60f01b60028303526119f2565b603d60f81b60018303525b508484525050819450505050505b919050565b611a9d8282604051602401611a1b92919061418a565b6040516020818303038152906040527f4b5c4277000000000000000000000000000000000000000000000000000000007bffffffffffffffffffffffffffffffffffffffffffffffffffffffff19166020820180517bffffffffffffffffffffffffffffffffffffffffffffffffffffffff83818316178352505050506121b4565b5050565b611abb82826040518060200160405280600081525061251b565b5050565b611ac882611669565b611b07576040517f08c379a0000000000000000000000000000000000000000000000000000000008152600401611afe90614233565b60405180910390fd5b80600660008481526020019081526020016000209080519060200190611b2e929190612a66565b505050565b611bcd838383604051602401611b4b93929190614253565b6040516020818303038152906040527f95ed0195000000000000000000000000000000000000000000000000000000007bffffffffffffffffffffffffffffffffffffffffffffffffffffffff19166020820180517bffffffffffffffffffffffffffffffffffffffffffffffffffffffff83818316178352505050506121b4565b505050565b6001816000016000828254019250508190555050565b6000611bf382611669565b611c32576040517f08c379a0000000000000000000000000000000000000000000000000000000008152600401611c299061430a565b60405180910390fd5b6000611c3d83610e4d565b90508073ffffffffffffffffffffffffffffffffffffffff168473ffffffffffffffffffffffffffffffffffffffff161480611cac57508373ffffffffffffffffffffffffffffffffffffffff16611c9484610596565b73ffffffffffffffffffffffffffffffffffffffff16145b80611cbd5750611cbc81856114d2565b5b91505092915050565b8273ffffffffffffffffffffffffffffffffffffffff16611ce682610e4d565b73ffffffffffffffffffffffffffffffffffffffff1614611d3c576040517f08c379a0000000000000000000000000000000000000000000000000000000008152600401611d339061439c565b60405180910390fd5b600073ffffffffffffffffffffffffffffffffffffffff168273ffffffffffffffffffffffffffffffffffffffff161415611dac576040517f08c379a0000000000000000000000000000000000000000000000000000000008152600401611da39061442e565b60405180910390fd5b611db7838383612576565b611dc26000826116dd565b6001600360008573ffffffffffffffffffffffffffffffffffffffff1673ffffffffffffffffffffffffffffffffffffffff1681526020019081526020016000206000828254611e12919061444e565b925050819055506001600360008473ffffffffffffffffffffffffffffffffffffffff1673ffffffffffffffffffffffffffffffffffffffff1681526020019081526020016000206000828254611e6991906137a1565b92505081905550816002600083815260200190815260200160002060006101000a81548173ffffffffffffffffffffffffffffffffffffffff021916908373ffffffffffffffffffffffffffffffffffffffff160217905550808273ffffffffffffffffffffffffffffffffffffffff168473ffffffffffffffffffffffffffffffffffffffff167fddf252ad1be2c89b69c2b068fc378daa952ba7f163c4a11628f55a4df523b3ef60405160405180910390a4611f2883838361257b565b505050565b8173ffffffffffffffffffffffffffffffffffffffff168373ffffffffffffffffffffffffffffffffffffffff161415611f9c576040517f08c379a0000000000000000000000000000000000000000000000000000000008152600401611f93906144ce565b60405180910390fd5b80600560008573ffffffffffffffffffffffffffffffffffffffff1673ffffffffffffffffffffffffffffffffffffffff16815260200190815260200160002060008473ffffffffffffffffffffffffffffffffffffffff1673ffffffffffffffffffffffffffffffffffffffff16815260200190815260200160002060006101000a81548160ff0219169083151502179055508173ffffffffffffffffffffffffffffffffffffffff168373ffffffffffffffffffffffffffffffffffffffff167f17307eab39ab6107e8899845ad3d59bd9653f200f220920489ca2b5937696c318360405161208d9190612ca4565b60405180910390a3505050565b6120a5848484611cc6565b6120b184848484612580565b6120f0576040517f08c379a00000000000000000000000000000000000000000000000000000000081526004016120e790614560565b60405180910390fd5b50505050565b606060405180602001604052806000815250905090565b606061211882611669565b612157576040517f08c379a000000000000000000000000000000000000000000000000000000000815260040161214e906145f2565b60405180910390fd5b60006121616120f6565b9050600081511161218157604051806020016040528060008152506121ac565b8061218b84612708565b60405160200161219c929190613f62565b6040516020818303038152906040525b915050919050565b60008151905060006a636f6e736f6c652e6c6f679050602083016000808483855afa5050505050565b60606000821415612225576040518060400160405280600181526020017f30000000000000000000000000000000000000000000000000000000000000008152509050612361565b600082905060005b6000821461225757808061224090614612565b915050600a8261225091906140ff565b915061222d565b60008167ffffffffffffffff81111561227357612272613301565b5b6040519080825280601f01601f1916602001820160405280156122a55781602001600182028036833780820191505090505b50905060008290505b60008614612359576001816122c3919061444e565b90506000600a80886122d591906140ff565b6122df9190614130565b876122ea919061444e565b60306122f69190614668565b905060008160f81b9050808484815181106123145761231361469f565b5b60200101907effffffffffffffffffffffffffffffffffffffffffffffffffffffffffffff1916908160001a905350600a8861235091906140ff565b975050506122ae565b819450505050505b919050565b60008060008084519050600092505b808210156125105760008583815181106123925761239161469f565b5b602001015160f81c60f81b9050608060f81b817effffffffffffffffffffffffffffffffffffffffffffffffffffffffffffff191610156123e1576001836123da91906137a1565b92506124fc565b60e060f81b817effffffffffffffffffffffffffffffffffffffffffffffffffffffffffffff191610156124235760028361241c91906137a1565b92506124fb565b60f060f81b817effffffffffffffffffffffffffffffffffffffffffffffffffffffffffffff191610156124655760038361245e91906137a1565b92506124fa565b60f8801b817effffffffffffffffffffffffffffffffffffffffffffffffffffffffffffff191610156124a65760048361249f91906137a1565b92506124f9565b60fc60f81b817effffffffffffffffffffffffffffffffffffffffffffffffffffffffffffff191610156124e8576005836124e191906137a1565b92506124f8565b6006836124f591906137a1565b92505b5b5b5b5b50828061250890614612565b935050612375565b829350505050919050565b6125258383612869565b6125326000848484612580565b612571576040517f08c379a000000000000000000000000000000000000000000000000000000000815260040161256890614560565b60405180910390fd5b505050565b505050565b505050565b60006125a18473ffffffffffffffffffffffffffffffffffffffff16612a43565b156126fb578373ffffffffffffffffffffffffffffffffffffffff1663150b7a026125ca6116d5565b8786866040518563ffffffff1660e01b81526004016125ec9493929190614723565b6020604051808303816000875af192505050801561262857506040513d601f19601f820116820180604052508101906126259190614784565b60015b6126ab573d8060008114612658576040519150601f19603f3d011682016040523d82523d6000602084013e61265d565b606091505b506000815114156126a3576040517f08c379a000000000000000000000000000000000000000000000000000000000815260040161269a90614560565b60405180910390fd5b805181602001fd5b63150b7a0260e01b7bffffffffffffffffffffffffffffffffffffffffffffffffffffffff1916817bffffffffffffffffffffffffffffffffffffffffffffffffffffffff191614915050612700565b600190505b949350505050565b60606000821415612750576040518060400160405280600181526020017f30000000000000000000000000000000000000000000000000000000000000008152509050612864565b600082905060005b6000821461278257808061276b90614612565b915050600a8261277b91906140ff565b9150612758565b60008167ffffffffffffffff81111561279e5761279d613301565b5b6040519080825280601f01601f1916602001820160405280156127d05781602001600182028036833780820191505090505b5090505b6000851461285d576001826127e9919061444e565b9150600a856127f891906147b1565b603061280491906137a1565b60f81b81838151811061281a5761281961469f565b5b60200101907effffffffffffffffffffffffffffffffffffffffffffffffffffffffffffff1916908160001a905350600a8561285691906140ff565b94506127d4565b8093505050505b919050565b600073ffffffffffffffffffffffffffffffffffffffff168273ffffffffffffffffffffffffffffffffffffffff1614156128d9576040517f08c379a00000000000000000000000000000000000000000000000000000000081526004016128d09061482e565b60405180910390fd5b6128e281611669565b15612922576040517f08c379a00000000000000000000000000000000000000000000000000000000081526004016129199061489a565b60405180910390fd5b61292e60008383612576565b6001600360008473ffffffffffffffffffffffffffffffffffffffff1673ffffffffffffffffffffffffffffffffffffffff168152602001908152602001600020600082825461297e91906137a1565b92505081905550816002600083815260200190815260200160002060006101000a81548173ffffffffffffffffffffffffffffffffffffffff021916908373ffffffffffffffffffffffffffffffffffffffff160217905550808273ffffffffffffffffffffffffffffffffffffffff16600073ffffffffffffffffffffffffffffffffffffffff167fddf252ad1be2c89b69c2b068fc378daa952ba7f163c4a11628f55a4df523b3ef60405160405180910390a4612a3f6000838361257b565b5050565b6000808273ffffffffffffffffffffffffffffffffffffffff163b119050919050565b828054612a729061351e565b90600052602060002090601f016020900481019282612a945760008555612adb565b82601f10612aad57805160ff1916838001178555612adb565b82800160010185558215612adb579182015b82811115612ada578251825591602001919060010190612abf565b5b509050612ae89190612bd3565b5090565b60405180610100016040528060008152602001600073ffffffffffffffffffffffffffffffffffffffff1681526020016060815260200160008152602001600081526020016000815260200160008152602001600063ffffffff1681525090565b828054612b599061351e565b90600052602060002090601f016020900481019282612b7b5760008555612bc2565b82601f10612b9457803560ff1916838001178555612bc2565b82800160010185558215612bc2579182015b82811115612bc1578235825591602001919060010190612ba6565b5b509050612bcf9190612bd3565b5090565b5b80821115612bec576000816000905550600101612bd4565b5090565b6000604051905090565b600080fd5b600080fd5b60007fffffffff0000000000000000000000000000000000000000000000000000000082169050919050565b612c3981612c04565b8114612c4457600080fd5b50565b600081359050612c5681612c30565b92915050565b600060208284031215612c7257612c71612bfa565b5b6000612c8084828501612c47565b91505092915050565b60008115159050919050565b612c9e81612c89565b82525050565b6000602082019050612cb96000830184612c95565b92915050565b600081519050919050565b600082825260208201905092915050565b60005b83811015612cf9578082015181840152602081019050612cde565b83811115612d08576000848401525b50505050565b6000601f19601f8301169050919050565b6000612d2a82612cbf565b612d348185612cca565b9350612d44818560208601612cdb565b612d4d81612d0e565b840191505092915050565b60006020820190508181036000830152612d728184612d1f565b905092915050565b6000819050919050565b612d8d81612d7a565b8114612d9857600080fd5b50565b600081359050612daa81612d84565b92915050565b600060208284031215612dc657612dc5612bfa565b5b6000612dd484828501612d9b565b91505092915050565b600073ffffffffffffffffffffffffffffffffffffffff82169050919050565b6000612e0882612ddd565b9050919050565b612e1881612dfd565b82525050565b6000602082019050612e336000830184612e0f565b92915050565b612e4281612dfd565b8114612e4d57600080fd5b50565b600081359050612e5f81612e39565b92915050565b60008060408385031215612e7c57612e7b612bfa565b5b6000612e8a85828601612e50565b9250506020612e9b85828601612d9b565b9150509250929050565b600080600060608486031215612ebe57612ebd612bfa565b5b6000612ecc86828701612e50565b9350506020612edd86828701612e50565b9250506040612eee86828701612d9b565b9150509250925092565b612f0181612d7a565b82525050565b612f1081612dfd565b82525050565b600082825260208201905092915050565b6000612f3282612cbf565b612f3c8185612f16565b9350612f4c818560208601612cdb565b612f5581612d0e565b840191505092915050565b600063ffffffff82169050919050565b612f7981612f60565b82525050565b600061010083016000830151612f986000860182612ef8565b506020830151612fab6020860182612f07565b5060408301518482036040860152612fc38282612f27565b9150506060830151612fd86060860182612ef8565b506080830151612feb6080860182612ef8565b5060a0830151612ffe60a0860182612ef8565b5060c083015161301160c0860182612ef8565b5060e083015161302460e0860182612f70565b508091505092915050565b600060208201905081810360008301526130498184612f7f565b905092915050565b600080fd5b600080fd5b600080fd5b60008083601f84011261307657613075613051565b5b8235905067ffffffffffffffff81111561309357613092613056565b5b6020830191508360018202830111156130af576130ae61305b565b5b9250929050565b600080600080600080600060c0888a0312156130d5576130d4612bfa565b5b60006130e38a828b01612d9b565b975050602088013567ffffffffffffffff81111561310457613103612bff565b5b6131108a828b01613060565b965096505060406131238a828b01612d9b565b94505060606131348a828b01612d9b565b93505060806131458a828b01612d9b565b92505060a06131568a828b01612d9b565b91505092959891949750929550565b61316e81612d7a565b82525050565b61317d81612f60565b82525050565b600061010082019050613199600083018b613165565b6131a6602083018a612e0f565b81810360408301526131b88189612d1f565b90506131c76060830188613165565b6131d46080830187613165565b6131e160a0830186613165565b6131ee60c0830185613165565b6131fb60e0830184613174565b9998505050505050505050565b6000806040838503121561321f5761321e612bfa565b5b600061322d85828601612d9b565b925050602061323e85828601612e50565b9150509250929050565b60006020828403121561325e5761325d612bfa565b5b600061326c84828501612e50565b91505092915050565b600060208201905061328a6000830184613165565b92915050565b61329981612c89565b81146132a457600080fd5b50565b6000813590506132b681613290565b92915050565b600080604083850312156132d3576132d2612bfa565b5b60006132e185828601612e50565b92505060206132f2858286016132a7565b9150509250929050565b600080fd5b7f4e487b7100000000000000000000000000000000000000000000000000000000600052604160045260246000fd5b61333982612d0e565b810181811067ffffffffffffffff8211171561335857613357613301565b5b80604052505050565b600061336b612bf0565b90506133778282613330565b919050565b600067ffffffffffffffff82111561339757613396613301565b5b6133a082612d0e565b9050602081019050919050565b82818337600083830152505050565b60006133cf6133ca8461337c565b613361565b9050828152602081018484840111156133eb576133ea6132fc565b5b6133f68482856133ad565b509392505050565b600082601f83011261341357613412613051565b5b81356134238482602086016133bc565b91505092915050565b6000806000806080858703121561344657613445612bfa565b5b600061345487828801612e50565b945050602061346587828801612e50565b935050604061347687828801612d9b565b925050606085013567ffffffffffffffff81111561349757613496612bff565b5b6134a3878288016133fe565b91505092959194509250565b600080604083850312156134c6576134c5612bfa565b5b60006134d485828601612e50565b92505060206134e585828601612e50565b9150509250929050565b7f4e487b7100000000000000000000000000000000000000000000000000000000600052602260045260246000fd5b6000600282049050600182168061353657607f821691505b6020821081141561354a576135496134ef565b5b50919050565b7f4552433732313a20617070726f76656420717565727920666f72206e6f6e657860008201527f697374656e7420746f6b656e0000000000000000000000000000000000000000602082015250565b60006135ac602c83612cca565b91506135b782613550565b604082019050919050565b600060208201905081810360008301526135db8161359f565b9050919050565b7f4552433732313a20617070726f76616c20746f2063757272656e74206f776e6560008201527f7200000000000000000000000000000000000000000000000000000000000000602082015250565b600061363e602183612cca565b9150613649826135e2565b604082019050919050565b6000602082019050818103600083015261366d81613631565b9050919050565b7f4552433732313a20617070726f76652063616c6c6572206973206e6f74206f7760008201527f6e6572206e6f7220617070726f76656420666f7220616c6c0000000000000000602082015250565b60006136d0603883612cca565b91506136db82613674565b604082019050919050565b600060208201905081810360008301526136ff816136c3565b9050919050565b7f5573657220616c726561647920686173205469636b6574000000000000000000600082015250565b600061373c601783612cca565b915061374782613706565b602082019050919050565b6000602082019050818103600083015261376b8161372f565b9050919050565b7f4e487b7100000000000000000000000000000000000000000000000000000000600052601160045260246000fd5b60006137ac82612d7a565b91506137b783612d7a565b9250827fffffffffffffffffffffffffffffffffffffffffffffffffffffffffffffffff038211156137ec576137eb613772565b5b828201905092915050565b600081905092915050565b60008190508160005260206000209050919050565b600081546138248161351e565b61382e81866137f7565b94506001821660008114613849576001811461385a5761388d565b60ff1983168652818601935061388d565b61386385613802565b60005b8381101561388557815481890152600182019150602081019050613866565b838801955050505b50505092915050565b60006138a182612cbf565b6138ab81856137f7565b93506138bb818560208601612cdb565b80840191505092915050565b60006138d38286613817565b91506138df8285613896565b91506138eb8284613817565b9150819050949350505050565b7f7b226e616d65223a2044696e6f4c616273222c20227469636b65644944223a2060008201527f2200000000000000000000000000000000000000000000000000000000000000602082015250565b60006139546021836137f7565b915061395f826138f8565b602182019050919050565b7f222c20226465736372697074696f6e223a202253756254726565202d2053756260008201527f736372697074696f6e204d6164652045617379222c2022696d616765223a202260208201527f646174613a696d6167652f7376672b786d6c3b6261736536342c000000000000604082015250565b60006139ec605a836137f7565b91506139f78261396a565b605a82019050919050565b7f227d000000000000000000000000000000000000000000000000000000000000600082015250565b6000613a386002836137f7565b9150613a4382613a02565b600282019050919050565b6000613a5982613947565b9150613a658285613896565b9150613a70826139df565b9150613a7c8284613896565b9150613a8782613a2b565b91508190509392505050565b7f646174613a6170706c69636174696f6e2f6a736f6e3b6261736536342c000000600082015250565b6000613ac9601d836137f7565b9150613ad482613a93565b601d82019050919050565b6000613aea82613abc565b9150613af68284613896565b915081905092915050565b7f4552433732313a207472616e736665722063616c6c6572206973206e6f74206f60008201527f776e6572206e6f7220617070726f766564000000000000000000000000000000602082015250565b6000613b5d603183612cca565b9150613b6882613b01565b604082019050919050565b60006020820190508181036000830152613b8c81613b50565b9050919050565b7f7469636b657420616c7265616479207375627363726962656420746f2061207060008201527f6c616e0000000000000000000000000000000000000000000000000000000000602082015250565b6000613bef602383612cca565b9150613bfa82613b93565b604082019050919050565b60006020820190508181036000830152613c1e81613be2565b9050919050565b7f4552433732313a206f776e657220717565727920666f72206e6f6e657869737460008201527f656e7420746f6b656e0000000000000000000000000000000000000000000000602082015250565b6000613c81602983612cca565b9150613c8c82613c25565b604082019050919050565b60006020820190508181036000830152613cb081613c74565b9050919050565b7f6f6e6c79206f776e6572206f6620746865207469636b65742063616e2063616c60008201527f6c20746869732066756e6374696f6e0000000000000000000000000000000000602082015250565b6000613d13602f83612cca565b9150613d1e82613cb7565b604082019050919050565b60006020820190508181036000830152613d4281613d06565b9050919050565b7f4d6178205472616e736665727320636c61696d656420666f722074686973207460008201527f6f6b656e00000000000000000000000000000000000000000000000000000000602082015250565b6000613da5602483612cca565b9150613db082613d49565b604082019050919050565b60006020820190508181036000830152613dd481613d98565b9050919050565b6000613de682612f60565b9150613df183612f60565b92508263ffffffff03821115613e0a57613e09613772565b5b828201905092915050565b6000604082019050613e2a6000830185612e0f565b613e376020830184612e0f565b9392505050565b7f4552433732313a2062616c616e636520717565727920666f7220746865207a6560008201527f726f206164647265737300000000000000000000000000000000000000000000602082015250565b6000613e9a602a83612cca565b9150613ea582613e3e565b604082019050919050565b60006020820190508181036000830152613ec981613e8d565b9050919050565b7f45524337323155524953746f726167653a2055524920717565727920666f722060008201527f6e6f6e6578697374656e7420746f6b656e000000000000000000000000000000602082015250565b6000613f2c603183612cca565b9150613f3782613ed0565b604082019050919050565b60006020820190508181036000830152613f5b81613f1f565b9050919050565b6000613f6e8285613896565b9150613f7a8284613896565b91508190509392505050565b7f3000000000000000000000000000000000000000000000000000000000000000600082015250565b6000613fbc6001836137f7565b9150613fc782613f86565b600182019050919050565b6000613fdd82613faf565b9150613fe98284613896565b915081905092915050565b7f3030000000000000000000000000000000000000000000000000000000000000600082015250565b600061402a6002836137f7565b915061403582613ff4565b600282019050919050565b600061404b8261401d565b91506140578284613896565b915081905092915050565b7f3030300000000000000000000000000000000000000000000000000000000000600082015250565b60006140986003836137f7565b91506140a382614062565b600382019050919050565b60006140b98261408b565b91506140c58284613896565b915081905092915050565b7f4e487b7100000000000000000000000000000000000000000000000000000000600052601260045260246000fd5b600061410a82612d7a565b915061411583612d7a565b925082614125576141246140d0565b5b828204905092915050565b600061413b82612d7a565b915061414683612d7a565b9250817fffffffffffffffffffffffffffffffffffffffffffffffffffffffffffffffff048311821515161561417f5761417e613772565b5b828202905092915050565b600060408201905081810360008301526141a48185612d1f565b905081810360208301526141b88184612d1f565b90509392505050565b7f45524337323155524953746f726167653a2055524920736574206f66206e6f6e60008201527f6578697374656e7420746f6b656e000000000000000000000000000000000000602082015250565b600061421d602e83612cca565b9150614228826141c1565b604082019050919050565b6000602082019050818103600083015261424c81614210565b9050919050565b6000606082019050818103600083015261426d8186612d1f565b905081810360208301526142818185612d1f565b90506142906040830184612e0f565b949350505050565b7f4552433732313a206f70657261746f7220717565727920666f72206e6f6e657860008201527f697374656e7420746f6b656e0000000000000000000000000000000000000000602082015250565b60006142f4602c83612cca565b91506142ff82614298565b604082019050919050565b60006020820190508181036000830152614323816142e7565b9050919050565b7f4552433732313a207472616e736665722066726f6d20696e636f72726563742060008201527f6f776e6572000000000000000000000000000000000000000000000000000000602082015250565b6000614386602583612cca565b91506143918261432a565b604082019050919050565b600060208201905081810360008301526143b581614379565b9050919050565b7f4552433732313a207472616e7366657220746f20746865207a65726f2061646460008201527f7265737300000000000000000000000000000000000000000000000000000000602082015250565b6000614418602483612cca565b9150614423826143bc565b604082019050919050565b600060208201905081810360008301526144478161440b565b9050919050565b600061445982612d7a565b915061446483612d7a565b92508282101561447757614476613772565b5b828203905092915050565b7f4552433732313a20617070726f766520746f2063616c6c657200000000000000600082015250565b60006144b8601983612cca565b91506144c382614482565b602082019050919050565b600060208201905081810360008301526144e7816144ab565b9050919050565b7f4552433732313a207472616e7366657220746f206e6f6e20455243373231526560008201527f63656976657220696d706c656d656e7465720000000000000000000000000000602082015250565b600061454a603283612cca565b9150614555826144ee565b604082019050919050565b600060208201905081810360008301526145798161453d565b9050919050565b7f4552433732314d657461646174613a2055524920717565727920666f72206e6f60008201527f6e6578697374656e7420746f6b656e0000000000000000000000000000000000602082015250565b60006145dc602f83612cca565b91506145e782614580565b604082019050919050565b6000602082019050818103600083015261460b816145cf565b9050919050565b600061461d82612d7a565b91507fffffffffffffffffffffffffffffffffffffffffffffffffffffffffffffffff8214156146505761464f613772565b5b600182019050919050565b600060ff82169050919050565b60006146738261465b565b915061467e8361465b565b92508260ff0382111561469457614693613772565b5b828201905092915050565b7f4e487b7100000000000000000000000000000000000000000000000000000000600052603260045260246000fd5b600081519050919050565b600082825260208201905092915050565b60006146f5826146ce565b6146ff81856146d9565b935061470f818560208601612cdb565b61471881612d0e565b840191505092915050565b60006080820190506147386000830187612e0f565b6147456020830186612e0f565b6147526040830185613165565b818103606083015261476481846146ea565b905095945050505050565b60008151905061477e81612c30565b92915050565b60006020828403121561479a57614799612bfa565b5b60006147a88482850161476f565b91505092915050565b60006147bc82612d7a565b91506147c783612d7a565b9250826147d7576147d66140d0565b5b828206905092915050565b7f4552433732313a206d696e7420746f20746865207a65726f2061646472657373600082015250565b6000614818602083612cca565b9150614823826147e2565b602082019050919050565b600060208201905081810360008301526148478161480b565b9050919050565b7f4552433732313a20746f6b656e20616c7265616479206d696e74656400000000600082015250565b6000614884601c83612cca565b915061488f8261484e565b602082019050919050565b600060208201905081810360008301526148b381614877565b905091905056fe0a2d2d2d2d2d2d2d2d2d2d2d2d2d2d2d2d2d2d2d2d2d2d2d2d2d2d2d2d2d2d2d2d2d2d2d2d2d2d2d2d2d2d2d2d2d2d2d2d2d2d2d2d2d2d2d2d2d2d2d2d2d2d2d2d2d2d2d2d2d2d2d2d2d2d2d2d2d2d2d2d2d2d2d2d2d2d2d2d2d2d2d2d2d2d2d2d2d2d2d2d2d2d2d2d2d2d2d2d2d2d2d2d0a4142434445464748494a4b4c4d4e4f505152535455565758595a6162636465666768696a6b6c6d6e6f707172737475767778797a303132333435363738392b2f416e207469636b657420772f2049442023257320686173206265656e206d696e74656420746f202573a26469706673582212206ffc3d9325e1cec8c84e32585dfd4b83b5f1d3f5f666edd0f123000f395ba43c64736f6c634300080a00333c73766720786d6c6e733d22687474703a2f2f7777772e77332e6f72672f323030302f737667222077696474683d2235303022206865696768743d22333030223e3c706174682066696c6c3d2275726c282361292220643d224d302030683530307633303048307a222f3e3c646566733e3c66696c7465722069643d22622220636f6c6f722d696e746572706f6c6174696f6e2d66696c746572733d2273524742222066696c746572556e6974733d227573657253706163654f6e55736522206865696768743d22333030222077696474683d22353030223e3c666544726f70536861646f772064783d2230222064793d22312220737464446576696174696f6e3d22322220666c6f6f642d6f7061636974793d222e323235222077696474683d22302522206865696768743d223025222f3e3c2f66696c7465723e3c2f646566733e3c73766720783d2231302220793d2235223e3c706174682066696c7465723d2275726c28236229222066696c6c3d22236666662220643d224d37322e3836332034322e39343961342e33383220342e3338322030203020302d342e33393420306c2d31302e30383120362e3033322d362e383520332e3933342d31302e30383120362e30333261342e33383220342e3338322030203020312d342e33393420306c2d382e3031332d342e37323161342e353220342e35322030203020312d312e3538392d312e36313620342e353420342e35342030203020312d2e3630382d322e313837762d392e333161342e323720342e3237203020302031202e3537322d322e32303820342e323520342e323520302030203120312e3632352d312e3539356c372e3838342d342e353961342e33383220342e33383220302030203120342e33393420306c372e38383420342e353961342e353220342e353220302030203120312e35383920312e36313620342e353420342e3534203020302031202e36303820322e31383776362e3033326c362e38352d342e303635762d362e30333261342e323720342e32372030203020302d2e3537322d322e32303820342e323520342e32352030203020302d312e3632352d312e3539354c34312e3435362032342e353961342e33383220342e3338322030203020302d342e33393420306c2d31342e38363420382e36353561342e323520342e32352030203020302d312e36323520312e35393520342e32373320342e3237332030203020302d2e35373220322e3230387631372e34343161342e323720342e3237203020302030202e35373220322e32303820342e323520342e323520302030203020312e36323520312e3539356c31342e38363420382e36353561342e33383220342e33383220302030203020342e33393420306c31302e3038312d352e39303120362e38352d342e3036352031302e3038312d352e39303161342e33383220342e33383220302030203120342e33393420306c372e38383420342e353961342e353220342e353220302030203120312e35383920312e36313620342e353420342e3534203020302031202e36303820322e31383776392e33313161342e323720342e32372030203020312d2e35373220322e32303820342e323520342e32352030203020312d312e36323520312e3539356c2d372e38383420342e37323161342e33383220342e3338322030203020312d342e33393420306c2d372e3838342d342e353961342e353220342e35322030203020312d312e3538392d312e36313620342e353320342e35332030203020312d2e3630382d322e313837762d362e3033326c2d362e383520342e30363576362e30333261342e323720342e3237203020302030202e35373220322e32303820342e323520342e323520302030203020312e36323520312e3539356c31342e38363420382e36353561342e33383220342e33383220302030203020342e33393420306c31342e3836342d382e36353561342e35343520342e35343520302030203020322e3139382d332e3830335635352e35333861342e323720342e32372030203020302d2e3537322d322e32303820342e323520342e32352030203020302d312e3632352d312e3539356c2d31342e3939332d382e3738367a222f3e3c2f7376673e3c646566733e3c6c696e6561724772616469656e742069643d2261222078313d2230222079313d2230222078323d2231303025222079323d22302522206772616469656e74556e6974733d227573657253706163654f6e55736522206772616469656e745472616e73666f726d3d22726f7461746528353529223e3c73746f70206f66667365743d222e31222073746f702d636f6c6f723d2223384132333837222073746f702d6f7061636974793d222e3938222f3e3c73746f70206f66667365743d222e38222073746f702d636f6c6f723d2223453934303537222073746f702d6f7061636974793d222e3938222f3e3c73746f70206f66667365743d2231222073746f702d636f6c6f723d2223463237313231222073746f702d6f7061636974793d222e3938222f3e3c2f6c696e6561724772616469656e743e3c2f646566733e3c73766720783d223338352220793d22313930222077696474683d22393022206865696768743d223930223e3c706174682066696c7465723d2275726c28236229222066696c6c3d22236666662220643d224d35332e353820352e3434396133302e3438342033302e3438342030203020302d372e39313620312e303434632d382e36343820322e33322d32302e35313720392e3634382d32392e33352031382e37303443372e3438312033342e32353320312e3833342034342e383920342e31392035332e36393663322e34313320392e3031352031312e33382031372e35342032322e3037322032332e3036352031302e36393220352e3532362032332e30323420372e3938372033312e34383120352e3731394336362e322038302e3231312037342e3638312037322e3230352038302e32372036322e33333663352e3538392d392e38363820382e3234362d32312e34393820352e3830362d33302e3631334338312e3834372031352e3931342036382e31383320352e3434352035332e35383120352e3434397a6d2d322e34333920352e36353263342e3230322e30363220372e35353620312e343520392e30363920342e31343220332e30323620352e3338342d322e3436312031332e3935392d31322e3236312031392e3135352d392e37393920352e3139352d32302e31393920352e3033382d32332e3232352d2e33343673322e3436372d31332e39362031322e3236362d31392e31353563342e392d322e35393820392e3934392d332e3835382031342e31352d332e3739367a6d33302e3933322032312e35363163342e3536342031372e3035332d392e38392034312e3937352d32352e3835362034362e3235382d392e37303820322e3630352d32332e3932392d312e3336312d33342e3631322d382e3730312032342e3032332031302e3931382035362e32373420322e312036302e3436392d33372e3535377a6d2d36352e30363620332e35303561362e36333420362e36333420302030203120362e36333620362e36333620362e36333820362e3633382030203120312d31332e323737203020362e36333820362e36333820302030203120362e3634312d362e3633367a222f3e3c2f7376673e3c7465787420783d223331352220793d2236302220666f6e742d73697a653d223430222066696c6c3d2223666666222066696c7465723d2275726c282362292220666f6e742d66616d696c793d22506c7573204a616b617274612053616e732c44656a6156752053616e732c4e6f746f20436f6c6f7220456d6f6a692c4170706c6520436f6c6f7220456d6f6a692c73616e732d73657269662220666f6e742d7765696768743d22626f6c64223e737562547265653c2f746578743e3c7465787420783d223138332220793d2239332220666f6e742d73697a653d223233222066696c6c3d2223666666222066696c7465723d2275726c282362292220666f6e742d66616d696c793d22506c7573204a616b617274612053616e732c44656a6156752053616e732c4e6f746f20436f6c6f7220456d6f6a692c4170706c6520436f6c6f7220456d6f6a692c73616e732d73657269662220666f6e742d7765696768743d22626f6c64223e537562736372697074696f6e73204d61646520456173793c2f746578743e3c7465787420783d2232352220793d223233302220666f6e742d73697a653d223338222066696c6c3d2223666666222066696c7465723d2275726c282362292220666f6e742d66616d696c793d22506c7573204a616b617274612053616e732c44656a6156752053616e732c4e6f746f20436f6c6f7220456d6f6a692c4170706c6520436f6c6f7220456d6f6a692c73616e732d73657269662220666f6e742d7765696768743d22626f6c64223e44696e6f4c6162733c2f746578743e3c7465787420783d2232352220793d223237302220666f6e742d73697a653d223238222066696c6c3d2223666666222066696c7465723d2275726c282362292220666f6e742d66616d696c793d22506c7573204a616b617274612053616e732c44656a6156752053616e732c4e6f746f20436f6c6f7220456d6f6a692c4170706c6520436f6c6f7220456d6f6a692c73616e732d73657269662220666f6e742d7765696768743d22626f6c64223e23",
  "linkReferences": {},
  "deployedLinkReferences": {}
}