{
  "_format": "hh-sol-artifact-1",
  "contractName": "Plan",
  "sourceName": "contracts/Plan.sol",
  "abi": [
    {
      "inputs": [],
      "stateMutability": "nonpayable",
      "type": "constructor"
    },
    {
      "anonymous": false,
      "inputs": [
        {
          "indexed": true,
          "internalType": "uint256",
          "name": "_planId",
          "type": "uint256"
        },
        {
          "indexed": true,
          "internalType": "uint256",
          "name": "_tId",
          "type": "uint256"
        }
      ],
      "name": "buyPlanEvent",
      "type": "event"
    },
    {
      "anonymous": false,
      "inputs": [
        {
          "indexed": true,
          "internalType": "uint256",
          "name": "_planId",
          "type": "uint256"
        },
        {
          "indexed": false,
          "internalType": "string",
          "name": "_planName",
          "type": "string"
        },
        {
          "indexed": false,
          "internalType": "uint256",
          "name": "_planCost",
          "type": "uint256"
        },
        {
          "indexed": false,
          "internalType": "uint256",
          "name": "_planDuration",
          "type": "uint256"
        }
      ],
      "name": "createPlanEvent",
      "type": "event"
    },
    {
      "anonymous": false,
      "inputs": [
        {
          "indexed": true,
          "internalType": "uint256",
          "name": "_planId",
          "type": "uint256"
        }
      ],
      "name": "deletePlanEvent",
      "type": "event"
    },
    {
      "anonymous": false,
      "inputs": [
        {
          "indexed": true,
          "internalType": "uint256",
          "name": "_planId",
          "type": "uint256"
        },
        {
          "indexed": false,
          "internalType": "string",
          "name": "_planName",
          "type": "string"
        },
        {
          "indexed": false,
          "internalType": "uint256",
          "name": "_planCost",
          "type": "uint256"
        },
        {
          "indexed": false,
          "internalType": "uint256",
          "name": "_planStart",
          "type": "uint256"
        },
        {
          "indexed": false,
          "internalType": "uint256",
          "name": "_planDuration",
          "type": "uint256"
        },
        {
          "indexed": false,
          "internalType": "uint256",
          "name": "_planEnd",
          "type": "uint256"
        }
      ],
      "name": "editPlanEvent",
      "type": "event"
    },
    {
      "inputs": [
        {
          "internalType": "address",
          "name": "_user",
          "type": "address"
        }
      ],
      "name": "addPlanControllers",
      "outputs": [],
      "stateMutability": "nonpayable",
      "type": "function"
    },
    {
      "inputs": [
        {
          "internalType": "uint256",
          "name": "_planId",
          "type": "uint256"
        },
        {
          "internalType": "uint256",
          "name": "_tId",
          "type": "uint256"
        }
      ],
      "name": "buyPlan",
      "outputs": [],
      "stateMutability": "payable",
      "type": "function"
    },
    {
      "inputs": [
        {
          "internalType": "string",
          "name": "_planName",
          "type": "string"
        },
        {
          "internalType": "uint256",
          "name": "_planCost",
          "type": "uint256"
        },
        {
          "internalType": "uint256",
          "name": "_planDuration",
          "type": "uint256"
        }
      ],
      "name": "createPlan",
      "outputs": [],
      "stateMutability": "nonpayable",
      "type": "function"
    },
    {
      "inputs": [
        {
          "internalType": "string",
          "name": "_planName",
          "type": "string"
        },
        {
          "internalType": "uint256",
          "name": "_planCost",
          "type": "uint256"
        },
        {
          "internalType": "uint256",
          "name": "_planStart",
          "type": "uint256"
        },
        {
          "internalType": "uint256",
          "name": "_planDuration",
          "type": "uint256"
        },
        {
          "internalType": "uint256",
          "name": "_planEnd",
          "type": "uint256"
        }
      ],
      "name": "createSpecialPlan",
      "outputs": [],
      "stateMutability": "nonpayable",
      "type": "function"
    },
    {
      "inputs": [
        {
          "internalType": "uint256",
          "name": "_planId",
          "type": "uint256"
        }
      ],
      "name": "deletePlan",
      "outputs": [],
      "stateMutability": "nonpayable",
      "type": "function"
    },
    {
      "inputs": [
        {
          "internalType": "uint256",
          "name": "_planId",
          "type": "uint256"
        },
        {
          "internalType": "string",
          "name": "_planName",
          "type": "string"
        },
        {
          "internalType": "uint256",
          "name": "_planCost",
          "type": "uint256"
        },
        {
          "internalType": "uint256",
          "name": "_planStart",
          "type": "uint256"
        },
        {
          "internalType": "uint256",
          "name": "_planDuration",
          "type": "uint256"
        },
        {
          "internalType": "uint256",
          "name": "_planEnd",
          "type": "uint256"
        }
      ],
      "name": "editPlan",
      "outputs": [],
      "stateMutability": "nonpayable",
      "type": "function"
    },
    {
      "inputs": [
        {
          "internalType": "uint256",
          "name": "_planId",
          "type": "uint256"
        }
      ],
      "name": "getPlanDetails",
      "outputs": [
        {
          "components": [
            {
              "internalType": "uint256",
              "name": "planId",
              "type": "uint256"
            },
            {
              "internalType": "string",
              "name": "planName",
              "type": "string"
            },
            {
              "internalType": "uint256",
              "name": "planCost",
              "type": "uint256"
            },
            {
              "internalType": "uint256",
              "name": "planStart",
              "type": "uint256"
            },
            {
              "internalType": "uint256",
              "name": "planDuration",
              "type": "uint256"
            },
            {
              "internalType": "uint256",
              "name": "planEnd",
              "type": "uint256"
            },
            {
              "internalType": "bool",
              "name": "planValidity",
              "type": "bool"
            },
            {
              "internalType": "uint256",
              "name": "planSubscribers",
              "type": "uint256"
            }
          ],
          "internalType": "struct Plan.planDetails",
          "name": "",
          "type": "tuple"
        }
      ],
      "stateMutability": "view",
      "type": "function"
    },
    {
      "inputs": [
        {
          "internalType": "address",
          "name": "",
          "type": "address"
        }
      ],
      "name": "planControllers",
      "outputs": [
        {
          "internalType": "bool",
          "name": "",
          "type": "bool"
        }
      ],
      "stateMutability": "view",
      "type": "function"
    },
    {
      "inputs": [
        {
          "internalType": "uint256",
          "name": "",
          "type": "uint256"
        }
      ],
      "name": "plans",
      "outputs": [
        {
          "internalType": "uint256",
          "name": "planId",
          "type": "uint256"
        },
        {
          "internalType": "string",
          "name": "planName",
          "type": "string"
        },
        {
          "internalType": "uint256",
          "name": "planCost",
          "type": "uint256"
        },
        {
          "internalType": "uint256",
          "name": "planStart",
          "type": "uint256"
        },
        {
          "internalType": "uint256",
          "name": "planDuration",
          "type": "uint256"
        },
        {
          "internalType": "uint256",
          "name": "planEnd",
          "type": "uint256"
        },
        {
          "internalType": "bool",
          "name": "planValidity",
          "type": "bool"
        },
        {
          "internalType": "uint256",
          "name": "planSubscribers",
          "type": "uint256"
        }
      ],
      "stateMutability": "view",
      "type": "function"
    },
    {
      "inputs": [
        {
          "internalType": "address",
          "name": "_user",
          "type": "address"
        }
      ],
      "name": "removePlanControllers",
      "outputs": [],
      "stateMutability": "nonpayable",
      "type": "function"
    },
    {
      "inputs": [
        {
          "internalType": "address",
          "name": "_ticketContractAddr",
          "type": "address"
        }
      ],
      "name": "ticketContract",
      "outputs": [],
      "stateMutability": "nonpayable",
      "type": "function"
    },
    {
      "inputs": [],
      "name": "ticketContractAddr",
      "outputs": [
        {
          "internalType": "address",
          "name": "",
          "type": "address"
        }
      ],
      "stateMutability": "view",
      "type": "function"
    }
  ],
  "bytecode": "0x608060405234801561001057600080fd5b50600180546001600160a01b031916339081178255600090815260036020908152604091829020805460ff19169093179092558051808201909152601d81527f506c616e2e736f6c20636f6e7472616374206973206465706c6f7965640000008183015261008591610d3961008a821b17901c565b61014a565b6100d18160405160240161009e91906100f5565b60408051601f198184030181529190526020810180516001600160e01b0390811663104c13eb60e21b179091526100d416565b50565b80516a636f6e736f6c652e6c6f67602083016000808483855afa5050505050565b600060208083528351808285015260005b8181101561012257858101830151858201604001528201610106565b81811115610134576000604083870101525b50601f01601f1916929092016040019392505050565b611341806200015a6000396000f3fe6080604052600436106100a75760003560e01c8063925a06c611610064578063925a06c61461019e578063ad5abed8146101be578063b1620616146101eb578063b8cffca11461021f578063c954700b1461023f578063eb2fd7351461027c57600080fd5b806308605d40146100ac57806326517b17146100c1578063296db952146100fe5780632d1fbc711461011e57806340ada25c1461013e5780638d22fdd61461015e575b600080fd5b6100bf6100ba366004610e39565b61029c565b005b3480156100cd57600080fd5b506004546100e1906001600160a01b031681565b6040516001600160a01b0390911681526020015b60405180910390f35b34801561010a57600080fd5b506100bf610119366004610ea4565b610467565b34801561012a57600080fd5b506100bf610139366004610f13565b610666565b34801561014a57600080fd5b506100bf610159366004610f75565b610866565b34801561016a57600080fd5b5061018e610179366004610f75565b60036020526000908152604090205460ff1681565b60405190151581526020016100f5565b3480156101aa57600080fd5b506100bf6101b9366004610fa5565b6108b4565b3480156101ca57600080fd5b506101de6101d9366004610fa5565b610958565b6040516100f5919061100b565b3480156101f757600080fd5b5061020b610206366004610fa5565b610aa5565b6040516100f598979695949392919061107e565b34801561022b57600080fd5b506100bf61023a366004610f75565b610b74565b34801561024b57600080fd5b506100bf61025a366004610f75565b600480546001600160a01b0319166001600160a01b0392909216919091179055565b34801561028857600080fd5b506100bf6102973660046110cd565b610bbf565b60008281526002602081905260409091209081015434146102fd5760405162461bcd60e51b81526020600482015260166024820152751b5bdb995e481cd95b9d08084f481c1b185b90dbdcdd60521b60448201526064015b60405180910390fd5b60018160070160008282546103129190611134565b92505081905550600081600101805461032a9061114c565b80601f01602080910402602001604051908101604052809291908181526020018280546103569061114c565b80156103a35780601f10610378576101008083540402835291602001916103a3565b820191906000526020600020905b81548152906001019060200180831161038657829003601f168201915b5050506002850154600486015493945092429250600091506103c59083611134565b600480546040516303f41cdd60e41b81529293506001600160a01b031691633f41cdd0916103ff918a9189918d918a918a918a9101611187565b600060405180830381600087803b15801561041957600080fd5b505af115801561042d573d6000803e3d6000fd5b50506040518892508991507f2e3e4253293271e7231cd2d64a3bcc2aabfeb7c377ef8dcc409ae090c5a07cfd90600090a350505050505050565b3360009081526003602052604090205460ff166104965760405162461bcd60e51b81526004016102f4906111c5565b6000878152600260205260409020600381015442106105165760405162461bcd60e51b815260206004820152603660248201527f506c616e2063616e6e6f7420626520656469746564206265636175736520706c604482015275185b881a185cc8185b1c9958591e481cdd185c9d195960521b60648201526084016102f4565b600681015460ff16151560011461056f5760405162461bcd60e51b815260206004820152601a60248201527f43616e6e6f74204564697420612044656c6574656420506c616e00000000000060448201526064016102f4565b816105b35760405162461bcd60e51b815260206004820152601460248201527305f706c616e456e642063616e6e6f7420626520360641b60448201526064016102f4565b6105c1600182018888610da0565b50600281018590556105d6836201518061120f565b60048201556105e8846201518061120f565b6105f29042611134565b6003820155610604826201518061120f565b81600301546106139190611134565b600582015560405188907f94efa39f399f830137b80f93cdde31ef7dd0156e0cb9f374e0a60618f8a6d5bf90610654908a908a908a908a908a908a90611257565b60405180910390a25050505050505050565b3360009081526003602052604090205460ff166106955760405162461bcd60e51b81526004016102f4906111c5565b846106dd5760405162461bcd60e51b8152602060048201526018602482015277706c616e4e616d652063616e6e6f7420626520656d70747960401b60448201526064016102f4565b8161072a5760405162461bcd60e51b815260206004820152601d60248201527f706c616e4475726174696f6e2063616e6e6f742062652030206461797300000060448201526064016102f4565b806107775760405162461bcd60e51b815260206004820152601860248201527f706c616e456e642063616e6e6f7420626520302064617973000000000000000060448201526064016102f4565b60008054610786906001611134565b60008181526002602052604090208181559091506107a8600182018989610da0565b50600281018690556107bd856201518061120f565b6107c79042611134565b60038201556107d9846201518061120f565b60048201556107eb836201518061120f565b81600301546107fa9190611134565b600582015560068101805460ff1916600117905560405182907fcc95fa730aa96e653d21db488dc70df5b959688bc0d4dcde382bf0c7e6e2ea8b90610846908b908b908b908a90611290565b60405180910390a261085c600080546001019055565b5050505050505050565b6001546001600160a01b031633146108905760405162461bcd60e51b81526004016102f4906112b7565b6001600160a01b03166000908152600360205260409020805460ff19166001179055565b3360009081526003602052604090205460ff166108e35760405162461bcd60e51b81526004016102f4906111c5565b6000818152600260205260409020600681015460ff16151560011461094a5760405162461bcd60e51b815260206004820152601c60248201527f43616e6e6f742064656c65746520612064656c6574656420506c616e0000000060448201526064016102f4565b600601805460ff1916905550565b6109a2604051806101000160405280600081526020016060815260200160008152602001600081526020016000815260200160008152602001600015158152602001600081525090565b6002600083815260200190815260200160002060405180610100016040529081600082015481526020016001820180546109db9061114c565b80601f0160208091040260200160405190810160405280929190818152602001828054610a079061114c565b8015610a545780601f10610a2957610100808354040283529160200191610a54565b820191906000526020600020905b815481529060010190602001808311610a3757829003601f168201915b505050918352505060028201546020820152600382015460408201526004820154606082015260058201546080820152600682015460ff16151560a082015260079091015460c09091015292915050565b60026020526000908152604090208054600182018054919291610ac79061114c565b80601f0160208091040260200160405190810160405280929190818152602001828054610af39061114c565b8015610b405780601f10610b1557610100808354040283529160200191610b40565b820191906000526020600020905b815481529060010190602001808311610b2357829003601f168201915b50505060028401546003850154600486015460058701546006880154600790980154969793969295509093509160ff169088565b6001546001600160a01b03163314610b9e5760405162461bcd60e51b81526004016102f4906112b7565b6001600160a01b03166000908152600360205260409020805460ff19169055565b3360009081526003602052604090205460ff16610bee5760405162461bcd60e51b81526004016102f4906111c5565b82610c365760405162461bcd60e51b8152602060048201526018602482015277706c616e4e616d652063616e6e6f7420626520656d70747960401b60448201526064016102f4565b80610c835760405162461bcd60e51b815260206004820152601d60248201527f706c616e4475726174696f6e2063616e6e6f742062652030206461797300000060448201526064016102f4565b60008054610c92906001611134565b6000818152600260205260409020818155909150610cb4600182018787610da0565b5060028101849055426003820155610ccf836201518061120f565b600482015560068101805460ff1916600117905560405182907fcc95fa730aa96e653d21db488dc70df5b959688bc0d4dcde382bf0c7e6e2ea8b90610d1b908990899089908990611290565b60405180910390a2610d31600080546001019055565b505050505050565b610d7c81604051602401610d4d91906112f8565b60408051601f198184030181529190526020810180516001600160e01b031663104c13eb60e21b179052610d7f565b50565b80516a636f6e736f6c652e6c6f67602083016000808483855afa5050505050565b828054610dac9061114c565b90600052602060002090601f016020900481019282610dce5760008555610e14565b82601f10610de75782800160ff19823516178555610e14565b82800160010185558215610e14579182015b82811115610e14578235825591602001919060010190610df9565b50610e20929150610e24565b5090565b5b80821115610e205760008155600101610e25565b60008060408385031215610e4c57600080fd5b50508035926020909101359150565b60008083601f840112610e6d57600080fd5b50813567ffffffffffffffff811115610e8557600080fd5b602083019150836020828501011115610e9d57600080fd5b9250929050565b600080600080600080600060c0888a031215610ebf57600080fd5b87359650602088013567ffffffffffffffff811115610edd57600080fd5b610ee98a828b01610e5b565b989b909a509798604081013598606082013598506080820135975060a09091013595509350505050565b60008060008060008060a08789031215610f2c57600080fd5b863567ffffffffffffffff811115610f4357600080fd5b610f4f89828a01610e5b565b909a90995060208901359860408101359850606081013597506080013595509350505050565b600060208284031215610f8757600080fd5b81356001600160a01b0381168114610f9e57600080fd5b9392505050565b600060208284031215610fb757600080fd5b5035919050565b6000815180845260005b81811015610fe457602081850181015186830182015201610fc8565b81811115610ff6576000602083870101525b50601f01601f19169290920160200192915050565b602081528151602082015260006020830151610100806040850152611034610120850183610fbe565b91506040850151606085015260608501516080850152608085015160a085015260a085015160c085015260c0850151151560e085015260e085015181850152508091505092915050565b60006101008a83528060208401526110988184018b610fbe565b604084019990995250506060810195909552608085019390935260a0840191909152151560c083015260e09091015292915050565b600080600080606085870312156110e357600080fd5b843567ffffffffffffffff8111156110fa57600080fd5b61110687828801610e5b565b90989097506020870135966040013595509350505050565b634e487b7160e01b600052601160045260246000fd5b600082198211156111475761114761111e565b500190565b600181811c9082168061116057607f821691505b6020821081141561118157634e487b7160e01b600052602260045260246000fd5b50919050565b86815260c0602082015260006111a060c0830188610fbe565b90508560408301528460608301528360808301528260a0830152979650505050505050565b6020808252602a908201527f4f6e6c7920506c616e436f6e74726f6c6c65722063616e2063616c6c207468696040820152693990333ab731ba34b7b760b11b606082015260800190565b60008160001904831182151516156112295761122961111e565b500290565b81835281816020850137506000828201602090810191909152601f909101601f19169091010190565b60a08152600061126b60a08301888a61122e565b9050856020830152846040830152836060830152826080830152979650505050505050565b6060815260006112a460608301868861122e565b6020830194909452506040015292915050565b60208082526021908201527f4f6e6c79204f776e65722063616e2063616c6c20746869732066756e6374696f6040820152603760f91b606082015260800190565b602081526000610f9e6020830184610fbe56fea26469706673582212208ce4dd8c15bb0b8d4c83e8eee55251379e0ef3f3ac6c7f00377280a9420cbeb164736f6c634300080a0033",
  "linkReferences": {},
  "deployedLinkReferences": {}
}