{
  "_format": "hh-sol-artifact-1",
  "contractName": "Plan",
  "sourceName": "contracts/Plan.sol",
  "abi": [
    {
      "inputs": [],
      "stateMutability": "nonpayable",
      "type": "constructor"
    },
    {
      "inputs": [
        {
          "internalType": "address",
          "name": "_user",
          "type": "address"
        }
      ],
      "name": "addPlanControllers",
      "outputs": [],
      "stateMutability": "nonpayable",
      "type": "function"
    },
    {
      "inputs": [
        {
          "internalType": "uint256",
          "name": "_planId",
          "type": "uint256"
        },
        {
          "internalType": "uint256",
          "name": "_tId",
          "type": "uint256"
        }
      ],
      "name": "buyPlan",
      "outputs": [],
      "stateMutability": "payable",
      "type": "function"
    },
    {
      "inputs": [
        {
          "internalType": "string",
          "name": "_planName",
          "type": "string"
        },
        {
          "internalType": "uint256",
          "name": "_planCost",
          "type": "uint256"
        },
        {
          "internalType": "uint256",
          "name": "_planDuration",
          "type": "uint256"
        }
      ],
      "name": "createPlan",
      "outputs": [],
      "stateMutability": "nonpayable",
      "type": "function"
    },
    {
      "inputs": [
        {
          "internalType": "string",
          "name": "_planName",
          "type": "string"
        },
        {
          "internalType": "uint256",
          "name": "_planCost",
          "type": "uint256"
        },
        {
          "internalType": "uint256",
          "name": "_planStart",
          "type": "uint256"
        },
        {
          "internalType": "uint256",
          "name": "_planDuration",
          "type": "uint256"
        },
        {
          "internalType": "uint256",
          "name": "_planEnd",
          "type": "uint256"
        }
      ],
      "name": "createSpecialPlan",
      "outputs": [],
      "stateMutability": "nonpayable",
      "type": "function"
    },
    {
      "inputs": [
        {
          "internalType": "uint256",
          "name": "_planId",
          "type": "uint256"
        }
      ],
      "name": "deletePlan",
      "outputs": [],
      "stateMutability": "nonpayable",
      "type": "function"
    },
    {
      "inputs": [
        {
          "internalType": "uint256",
          "name": "_planId",
          "type": "uint256"
        },
        {
          "internalType": "string",
          "name": "_planName",
          "type": "string"
        },
        {
          "internalType": "uint256",
          "name": "_planCost",
          "type": "uint256"
        },
        {
          "internalType": "uint256",
          "name": "_planStart",
          "type": "uint256"
        },
        {
          "internalType": "uint256",
          "name": "_planDuration",
          "type": "uint256"
        },
        {
          "internalType": "uint256",
          "name": "_planEnd",
          "type": "uint256"
        }
      ],
      "name": "editPlan",
      "outputs": [],
      "stateMutability": "nonpayable",
      "type": "function"
    },
    {
      "inputs": [
        {
          "internalType": "uint256",
          "name": "_planId",
          "type": "uint256"
        }
      ],
      "name": "getPlanDetails",
      "outputs": [
        {
          "components": [
            {
              "internalType": "uint256",
              "name": "planId",
              "type": "uint256"
            },
            {
              "internalType": "string",
              "name": "planName",
              "type": "string"
            },
            {
              "internalType": "uint256",
              "name": "planCost",
              "type": "uint256"
            },
            {
              "internalType": "uint256",
              "name": "planStart",
              "type": "uint256"
            },
            {
              "internalType": "uint256",
              "name": "planDuration",
              "type": "uint256"
            },
            {
              "internalType": "uint256",
              "name": "planEnd",
              "type": "uint256"
            },
            {
              "internalType": "bool",
              "name": "planStarted",
              "type": "bool"
            },
            {
              "internalType": "uint256",
              "name": "planSubscribers",
              "type": "uint256"
            }
          ],
          "internalType": "struct Plan.planDetails",
          "name": "",
          "type": "tuple"
        }
      ],
      "stateMutability": "view",
      "type": "function"
    },
    {
      "inputs": [
        {
          "internalType": "address",
          "name": "",
          "type": "address"
        }
      ],
      "name": "planControllers",
      "outputs": [
        {
          "internalType": "bool",
          "name": "",
          "type": "bool"
        }
      ],
      "stateMutability": "view",
      "type": "function"
    },
    {
      "inputs": [
        {
          "internalType": "uint256",
          "name": "",
          "type": "uint256"
        }
      ],
      "name": "plans",
      "outputs": [
        {
          "internalType": "uint256",
          "name": "planId",
          "type": "uint256"
        },
        {
          "internalType": "string",
          "name": "planName",
          "type": "string"
        },
        {
          "internalType": "uint256",
          "name": "planCost",
          "type": "uint256"
        },
        {
          "internalType": "uint256",
          "name": "planStart",
          "type": "uint256"
        },
        {
          "internalType": "uint256",
          "name": "planDuration",
          "type": "uint256"
        },
        {
          "internalType": "uint256",
          "name": "planEnd",
          "type": "uint256"
        },
        {
          "internalType": "bool",
          "name": "planStarted",
          "type": "bool"
        },
        {
          "internalType": "uint256",
          "name": "planSubscribers",
          "type": "uint256"
        }
      ],
      "stateMutability": "view",
      "type": "function"
    },
    {
      "inputs": [
        {
          "internalType": "address",
          "name": "_user",
          "type": "address"
        }
      ],
      "name": "removePlanControllers",
      "outputs": [],
      "stateMutability": "nonpayable",
      "type": "function"
    },
    {
      "inputs": [
        {
          "internalType": "address",
          "name": "_ticketContractAddr",
          "type": "address"
        }
      ],
      "name": "ticketContract",
      "outputs": [],
      "stateMutability": "nonpayable",
      "type": "function"
    },
    {
      "inputs": [],
      "name": "ticketContractAddr",
      "outputs": [
        {
          "internalType": "address",
          "name": "",
          "type": "address"
        }
      ],
      "stateMutability": "view",
      "type": "function"
    }
  ],
  "bytecode": "0x60806040523480156200001157600080fd5b5033600160006101000a81548173ffffffffffffffffffffffffffffffffffffffff021916908373ffffffffffffffffffffffffffffffffffffffff160217905550600160036000600160009054906101000a900473ffffffffffffffffffffffffffffffffffffffff1673ffffffffffffffffffffffffffffffffffffffff1673ffffffffffffffffffffffffffffffffffffffff16815260200190815260200160002060006101000a81548160ff021916908315150217905550620001186040518060400160405280601d81526020017f506c616e2e736f6c20636f6e7472616374206973206465706c6f7965640000008152506200011e60201b620010161760201c565b620002b2565b620001be816040516024016200013591906200028e565b6040516020818303038152906040527f41304fac000000000000000000000000000000000000000000000000000000007bffffffffffffffffffffffffffffffffffffffffffffffffffffffff19166020820180517bffffffffffffffffffffffffffffffffffffffffffffffffffffffff8381831617835250505050620001c160201b60201c565b50565b60008151905060006a636f6e736f6c652e6c6f679050602083016000808483855afa5050505050565b600081519050919050565b600082825260208201905092915050565b60005b838110156200022657808201518184015260208101905062000209565b8381111562000236576000848401525b50505050565b6000601f19601f8301169050919050565b60006200025a82620001ea565b620002668185620001f5565b93506200027881856020860162000206565b62000283816200023c565b840191505092915050565b60006020820190508181036000830152620002aa81846200024d565b905092915050565b611eb180620002c26000396000f3fe6080604052600436106100a75760003560e01c8063925a06c611610064578063925a06c6146101ab578063ad5abed8146101d4578063b162061614610211578063b8cffca114610255578063c954700b1461027e578063eb2fd735146102a7576100a7565b806308605d40146100ac57806326517b17146100c8578063296db952146100f35780632d1fbc711461011c57806340ada25c146101455780638d22fdd61461016e575b600080fd5b6100c660048036038101906100c19190611226565b6102d0565b005b3480156100d457600080fd5b506100dd61049c565b6040516100ea91906112a7565b60405180910390f35b3480156100ff57600080fd5b5061011a60048036038101906101159190611327565b6104c2565b005b34801561012857600080fd5b50610143600480360381019061013e91906113d6565b6106cd565b005b34801561015157600080fd5b5061016c6004803603810190610167919061149c565b61090f565b005b34801561017a57600080fd5b506101956004803603810190610190919061149c565b6109fa565b6040516101a291906114e4565b60405180910390f35b3480156101b757600080fd5b506101d260048036038101906101cd91906114ff565b610a1a565b005b3480156101e057600080fd5b506101fb60048036038101906101f691906114ff565b610b36565b6040516102089190611693565b60405180910390f35b34801561021d57600080fd5b50610238600480360381019061023391906114ff565b610c4d565b60405161024c98979695949392919061170e565b60405180910390f35b34801561026157600080fd5b5061027c6004803603810190610277919061149c565b610d2a565b005b34801561028a57600080fd5b506102a560048036038101906102a0919061149c565b610e15565b005b3480156102b357600080fd5b506102ce60048036038101906102c99190611793565b610e59565b005b60006002600084815260200190815260200160002090508060020154341461032d576040517f08c379a000000000000000000000000000000000000000000000000000000000815260040161032490611853565b60405180910390fd5b600181600701600082825461034291906118a2565b92505081905550600081600101805461035a90611927565b80601f016020809104026020016040519081016040528092919081815260200182805461038690611927565b80156103d35780601f106103a8576101008083540402835291602001916103d3565b820191906000526020600020905b8154815290600101906020018083116103b657829003601f168201915b50505050509050600082600201549050600042905060008460040154826103fa91906118a2565b9050600460009054906101000a900473ffffffffffffffffffffffffffffffffffffffff1673ffffffffffffffffffffffffffffffffffffffff16633f41cdd087868a8787876040518763ffffffff1660e01b815260040161046196959493929190611959565b600060405180830381600087803b15801561047b57600080fd5b505af115801561048f573d6000803e3d6000fd5b5050505050505050505050565b600460009054906101000a900473ffffffffffffffffffffffffffffffffffffffff1681565b600360003373ffffffffffffffffffffffffffffffffffffffff1673ffffffffffffffffffffffffffffffffffffffff16815260200190815260200160002060009054906101000a900460ff1661054e576040517f08c379a000000000000000000000000000000000000000000000000000000000815260040161054590611a33565b60405180910390fd5b6000600260008981526020019081526020016000209050806003015442106105ab576040517f08c379a00000000000000000000000000000000000000000000000000000000081526004016105a290611ac5565b60405180910390fd5b600115158160060160009054906101000a900460ff16151514610603576040517f08c379a00000000000000000000000000000000000000000000000000000000081526004016105fa90611b31565b60405180910390fd5b6000821415610647576040517f08c379a000000000000000000000000000000000000000000000000000000000815260040161063e90611b9d565b60405180910390fd5b868682600101919061065a9291906110fc565b5084816002018190555062015180836106739190611bbd565b8160040181905550620151808461068a9190611bbd565b4261069591906118a2565b816003018190555062015180826106ac9190611bbd565b81600301546106bb91906118a2565b81600501819055505050505050505050565b600360003373ffffffffffffffffffffffffffffffffffffffff1673ffffffffffffffffffffffffffffffffffffffff16815260200190815260200160002060009054906101000a900460ff16610759576040517f08c379a000000000000000000000000000000000000000000000000000000000815260040161075090611a33565b60405180910390fd5b60008686905014156107a0576040517f08c379a000000000000000000000000000000000000000000000000000000000815260040161079790611c63565b60405180910390fd5b60008214156107e4576040517f08c379a00000000000000000000000000000000000000000000000000000000081526004016107db90611ccf565b60405180910390fd5b6000811415610828576040517f08c379a000000000000000000000000000000000000000000000000000000000815260040161081f90611d3b565b60405180910390fd5b6000600161083660006110af565b61084091906118a2565b9050600060026000838152602001908152602001600020905081816000018190555087878260010191906108759291906110fc565b50858160020181905550620151808561088e9190611bbd565b4261089991906118a2565b816003018190555062015180846108b09190611bbd565b816004018190555062015180836108c79190611bbd565b81600301546108d691906118a2565b816005018190555060018160060160006101000a81548160ff02191690831515021790555061090560006110bd565b5050505050505050565b600160009054906101000a900473ffffffffffffffffffffffffffffffffffffffff1673ffffffffffffffffffffffffffffffffffffffff163373ffffffffffffffffffffffffffffffffffffffff161461099f576040517f08c379a000000000000000000000000000000000000000000000000000000000815260040161099690611dcd565b60405180910390fd5b6001600360008373ffffffffffffffffffffffffffffffffffffffff1673ffffffffffffffffffffffffffffffffffffffff16815260200190815260200160002060006101000a81548160ff02191690831515021790555050565b60036020528060005260406000206000915054906101000a900460ff1681565b600360003373ffffffffffffffffffffffffffffffffffffffff1673ffffffffffffffffffffffffffffffffffffffff16815260200190815260200160002060009054906101000a900460ff16610aa6576040517f08c379a0000000000000000000000000000000000000000000000000000000008152600401610a9d90611a33565b60405180910390fd5b6000600260008381526020019081526020016000209050600115158160060160009054906101000a900460ff16151514610b15576040517f08c379a0000000000000000000000000000000000000000000000000000000008152600401610b0c90611e39565b60405180910390fd5b60008160060160006101000a81548160ff0219169083151502179055505050565b610b3e611182565b600260008381526020019081526020016000206040518061010001604052908160008201548152602001600182018054610b7790611927565b80601f0160208091040260200160405190810160405280929190818152602001828054610ba390611927565b8015610bf05780601f10610bc557610100808354040283529160200191610bf0565b820191906000526020600020905b815481529060010190602001808311610bd357829003601f168201915b50505050508152602001600282015481526020016003820154815260200160048201548152602001600582015481526020016006820160009054906101000a900460ff161515151581526020016007820154815250509050919050565b6002602052806000526040600020600091509050806000015490806001018054610c7690611927565b80601f0160208091040260200160405190810160405280929190818152602001828054610ca290611927565b8015610cef5780601f10610cc457610100808354040283529160200191610cef565b820191906000526020600020905b815481529060010190602001808311610cd257829003601f168201915b5050505050908060020154908060030154908060040154908060050154908060060160009054906101000a900460ff16908060070154905088565b600160009054906101000a900473ffffffffffffffffffffffffffffffffffffffff1673ffffffffffffffffffffffffffffffffffffffff163373ffffffffffffffffffffffffffffffffffffffff1614610dba576040517f08c379a0000000000000000000000000000000000000000000000000000000008152600401610db190611dcd565b60405180910390fd5b6000600360008373ffffffffffffffffffffffffffffffffffffffff1673ffffffffffffffffffffffffffffffffffffffff16815260200190815260200160002060006101000a81548160ff02191690831515021790555050565b80600460006101000a81548173ffffffffffffffffffffffffffffffffffffffff021916908373ffffffffffffffffffffffffffffffffffffffff16021790555050565b600360003373ffffffffffffffffffffffffffffffffffffffff1673ffffffffffffffffffffffffffffffffffffffff16815260200190815260200160002060009054906101000a900460ff16610ee5576040517f08c379a0000000000000000000000000000000000000000000000000000000008152600401610edc90611a33565b60405180910390fd5b6000848490501415610f2c576040517f08c379a0000000000000000000000000000000000000000000000000000000008152600401610f2390611c63565b60405180910390fd5b6000811415610f70576040517f08c379a0000000000000000000000000000000000000000000000000000000008152600401610f6790611ccf565b60405180910390fd5b60006001610f7e60006110af565b610f8891906118a2565b905060006002600083815260200190815260200160002090508181600001819055508585826001019190610fbd9291906110fc565b508381600201819055504281600301819055506201518083610fdf9190611bbd565b816004018190555060018160060160006101000a81548160ff02191690831515021790555061100e60006110bd565b505050505050565b6110ac8160405160240161102a9190611e59565b6040516020818303038152906040527f41304fac000000000000000000000000000000000000000000000000000000007bffffffffffffffffffffffffffffffffffffffffffffffffffffffff19166020820180517bffffffffffffffffffffffffffffffffffffffffffffffffffffffff83818316178352505050506110d3565b50565b600081600001549050919050565b6001816000016000828254019250508190555050565b60008151905060006a636f6e736f6c652e6c6f679050602083016000808483855afa5050505050565b82805461110890611927565b90600052602060002090601f01602090048101928261112a5760008555611171565b82601f1061114357803560ff1916838001178555611171565b82800160010185558215611171579182015b82811115611170578235825591602001919060010190611155565b5b50905061117e91906111c9565b5090565b604051806101000160405280600081526020016060815260200160008152602001600081526020016000815260200160008152602001600015158152602001600081525090565b5b808211156111e25760008160009055506001016111ca565b5090565b600080fd5b600080fd5b6000819050919050565b611203816111f0565b811461120e57600080fd5b50565b600081359050611220816111fa565b92915050565b6000806040838503121561123d5761123c6111e6565b5b600061124b85828601611211565b925050602061125c85828601611211565b9150509250929050565b600073ffffffffffffffffffffffffffffffffffffffff82169050919050565b600061129182611266565b9050919050565b6112a181611286565b82525050565b60006020820190506112bc6000830184611298565b92915050565b600080fd5b600080fd5b600080fd5b60008083601f8401126112e7576112e66112c2565b5b8235905067ffffffffffffffff811115611304576113036112c7565b5b6020830191508360018202830111156113205761131f6112cc565b5b9250929050565b600080600080600080600060c0888a031215611346576113456111e6565b5b60006113548a828b01611211565b975050602088013567ffffffffffffffff811115611375576113746111eb565b5b6113818a828b016112d1565b965096505060406113948a828b01611211565b94505060606113a58a828b01611211565b93505060806113b68a828b01611211565b92505060a06113c78a828b01611211565b91505092959891949750929550565b60008060008060008060a087890312156113f3576113f26111e6565b5b600087013567ffffffffffffffff811115611411576114106111eb565b5b61141d89828a016112d1565b9650965050602061143089828a01611211565b945050604061144189828a01611211565b935050606061145289828a01611211565b925050608061146389828a01611211565b9150509295509295509295565b61147981611286565b811461148457600080fd5b50565b60008135905061149681611470565b92915050565b6000602082840312156114b2576114b16111e6565b5b60006114c084828501611487565b91505092915050565b60008115159050919050565b6114de816114c9565b82525050565b60006020820190506114f960008301846114d5565b92915050565b600060208284031215611515576115146111e6565b5b600061152384828501611211565b91505092915050565b611535816111f0565b82525050565b600081519050919050565b600082825260208201905092915050565b60005b8381101561157557808201518184015260208101905061155a565b83811115611584576000848401525b50505050565b6000601f19601f8301169050919050565b60006115a68261153b565b6115b08185611546565b93506115c0818560208601611557565b6115c98161158a565b840191505092915050565b6115dd816114c9565b82525050565b6000610100830160008301516115fc600086018261152c565b5060208301518482036020860152611614828261159b565b9150506040830151611629604086018261152c565b50606083015161163c606086018261152c565b50608083015161164f608086018261152c565b5060a083015161166260a086018261152c565b5060c083015161167560c08601826115d4565b5060e083015161168860e086018261152c565b508091505092915050565b600060208201905081810360008301526116ad81846115e3565b905092915050565b6116be816111f0565b82525050565b600082825260208201905092915050565b60006116e08261153b565b6116ea81856116c4565b93506116fa818560208601611557565b6117038161158a565b840191505092915050565b600061010082019050611724600083018b6116b5565b8181036020830152611736818a6116d5565b905061174560408301896116b5565b61175260608301886116b5565b61175f60808301876116b5565b61176c60a08301866116b5565b61177960c08301856114d5565b61178660e08301846116b5565b9998505050505050505050565b600080600080606085870312156117ad576117ac6111e6565b5b600085013567ffffffffffffffff8111156117cb576117ca6111eb565b5b6117d7878288016112d1565b945094505060206117ea87828801611211565b92505060406117fb87828801611211565b91505092959194509250565b7f6d6f6e65792073656e7420213d20706c616e436f737400000000000000000000600082015250565b600061183d6016836116c4565b915061184882611807565b602082019050919050565b6000602082019050818103600083015261186c81611830565b9050919050565b7f4e487b7100000000000000000000000000000000000000000000000000000000600052601160045260246000fd5b60006118ad826111f0565b91506118b8836111f0565b9250827fffffffffffffffffffffffffffffffffffffffffffffffffffffffffffffffff038211156118ed576118ec611873565b5b828201905092915050565b7f4e487b7100000000000000000000000000000000000000000000000000000000600052602260045260246000fd5b6000600282049050600182168061193f57607f821691505b60208210811415611953576119526118f8565b5b50919050565b600060c08201905061196e60008301896116b5565b818103602083015261198081886116d5565b905061198f60408301876116b5565b61199c60608301866116b5565b6119a960808301856116b5565b6119b660a08301846116b5565b979650505050505050565b7f4f6e6c7920506c616e436f6e74726f6c6c65722063616e2063616c6c2074686960008201527f732066756e6374696f6e00000000000000000000000000000000000000000000602082015250565b6000611a1d602a836116c4565b9150611a28826119c1565b604082019050919050565b60006020820190508181036000830152611a4c81611a10565b9050919050565b7f506c616e2063616e6e6f7420626520656469746564206265636175736520706c60008201527f616e2068617320616c7265616479207374617274656400000000000000000000602082015250565b6000611aaf6036836116c4565b9150611aba82611a53565b604082019050919050565b60006020820190508181036000830152611ade81611aa2565b9050919050565b7f43616e6e6f74204564697420612044656c6574656420506c616e000000000000600082015250565b6000611b1b601a836116c4565b9150611b2682611ae5565b602082019050919050565b60006020820190508181036000830152611b4a81611b0e565b9050919050565b7f5f706c616e456e642063616e6e6f742062652030000000000000000000000000600082015250565b6000611b876014836116c4565b9150611b9282611b51565b602082019050919050565b60006020820190508181036000830152611bb681611b7a565b9050919050565b6000611bc8826111f0565b9150611bd3836111f0565b9250817fffffffffffffffffffffffffffffffffffffffffffffffffffffffffffffffff0483118215151615611c0c57611c0b611873565b5b828202905092915050565b7f706c616e4e616d652063616e6e6f7420626520656d7074790000000000000000600082015250565b6000611c4d6018836116c4565b9150611c5882611c17565b602082019050919050565b60006020820190508181036000830152611c7c81611c40565b9050919050565b7f706c616e4475726174696f6e2063616e6e6f7420626520302064617973000000600082015250565b6000611cb9601d836116c4565b9150611cc482611c83565b602082019050919050565b60006020820190508181036000830152611ce881611cac565b9050919050565b7f706c616e456e642063616e6e6f74206265203020646179730000000000000000600082015250565b6000611d256018836116c4565b9150611d3082611cef565b602082019050919050565b60006020820190508181036000830152611d5481611d18565b9050919050565b7f4f6e6c79204f776e65722063616e2063616c6c20746869732066756e6374696f60008201527f6e00000000000000000000000000000000000000000000000000000000000000602082015250565b6000611db76021836116c4565b9150611dc282611d5b565b604082019050919050565b60006020820190508181036000830152611de681611daa565b9050919050565b7f43616e6e6f742064656c65746520612064656c6574656420506c616e00000000600082015250565b6000611e23601c836116c4565b9150611e2e82611ded565b602082019050919050565b60006020820190508181036000830152611e5281611e16565b9050919050565b60006020820190508181036000830152611e7381846116d5565b90509291505056fea26469706673582212204a24df1cd084555f20d9673cac09e4b74c8f79e5d99dd358f9c5c237a8b001be64736f6c634300080a0033",
  "linkReferences": {},
  "deployedLinkReferences": {}
}