{
  "_format": "hh-sol-artifact-1",
  "contractName": "Plan",
  "sourceName": "contracts/Plan.sol",
  "abi": [
    {
      "inputs": [],
      "stateMutability": "nonpayable",
      "type": "constructor"
    },
    {
      "anonymous": false,
      "inputs": [
        {
          "indexed": true,
          "internalType": "uint256",
          "name": "_planId",
          "type": "uint256"
        },
        {
          "indexed": true,
          "internalType": "uint256",
          "name": "_tId",
          "type": "uint256"
        }
      ],
      "name": "buyPlanEvent",
      "type": "event"
    },
    {
      "anonymous": false,
      "inputs": [
        {
          "indexed": true,
          "internalType": "uint256",
          "name": "_planId",
          "type": "uint256"
        },
        {
          "indexed": false,
          "internalType": "string",
          "name": "_planName",
          "type": "string"
        },
        {
          "indexed": false,
          "internalType": "uint256",
          "name": "_planCost",
          "type": "uint256"
        },
        {
          "indexed": false,
          "internalType": "uint256",
          "name": "_planDuration",
          "type": "uint256"
        }
      ],
      "name": "createPlanEvent",
      "type": "event"
    },
    {
      "anonymous": false,
      "inputs": [
        {
          "indexed": true,
          "internalType": "uint256",
          "name": "_planId",
          "type": "uint256"
        }
      ],
      "name": "deletePlanEvent",
      "type": "event"
    },
    {
      "anonymous": false,
      "inputs": [
        {
          "indexed": true,
          "internalType": "uint256",
          "name": "_planId",
          "type": "uint256"
        },
        {
          "indexed": false,
          "internalType": "string",
          "name": "_planName",
          "type": "string"
        },
        {
          "indexed": false,
          "internalType": "uint256",
          "name": "_planCost",
          "type": "uint256"
        },
        {
          "indexed": false,
          "internalType": "uint256",
          "name": "_planStart",
          "type": "uint256"
        },
        {
          "indexed": false,
          "internalType": "uint256",
          "name": "_planDuration",
          "type": "uint256"
        },
        {
          "indexed": false,
          "internalType": "uint256",
          "name": "_planEnd",
          "type": "uint256"
        }
      ],
      "name": "editPlanEvent",
      "type": "event"
    },
    {
      "inputs": [
        {
          "internalType": "address",
          "name": "_user",
          "type": "address"
        }
      ],
      "name": "addPlanControllers",
      "outputs": [],
      "stateMutability": "nonpayable",
      "type": "function"
    },
    {
      "inputs": [
        {
          "internalType": "uint256",
          "name": "_planId",
          "type": "uint256"
        },
        {
          "internalType": "uint256",
          "name": "_tId",
          "type": "uint256"
        }
      ],
      "name": "buyPlan",
      "outputs": [],
      "stateMutability": "payable",
      "type": "function"
    },
    {
      "inputs": [
        {
          "internalType": "string",
          "name": "_planName",
          "type": "string"
        },
        {
          "internalType": "uint256",
          "name": "_planCost",
          "type": "uint256"
        },
        {
          "internalType": "uint256",
          "name": "_planDuration",
          "type": "uint256"
        }
      ],
      "name": "createPlan",
      "outputs": [],
      "stateMutability": "nonpayable",
      "type": "function"
    },
    {
      "inputs": [
        {
          "internalType": "string",
          "name": "_planName",
          "type": "string"
        },
        {
          "internalType": "uint256",
          "name": "_planCost",
          "type": "uint256"
        },
        {
          "internalType": "uint256",
          "name": "_planStart",
          "type": "uint256"
        },
        {
          "internalType": "uint256",
          "name": "_planDuration",
          "type": "uint256"
        },
        {
          "internalType": "uint256",
          "name": "_planEnd",
          "type": "uint256"
        }
      ],
      "name": "createSpecialPlan",
      "outputs": [],
      "stateMutability": "nonpayable",
      "type": "function"
    },
    {
      "inputs": [
        {
          "internalType": "uint256",
          "name": "_planId",
          "type": "uint256"
        }
      ],
      "name": "deletePlan",
      "outputs": [],
      "stateMutability": "nonpayable",
      "type": "function"
    },
    {
      "inputs": [
        {
          "internalType": "uint256",
          "name": "_planId",
          "type": "uint256"
        },
        {
          "internalType": "string",
          "name": "_planName",
          "type": "string"
        },
        {
          "internalType": "uint256",
          "name": "_planCost",
          "type": "uint256"
        },
        {
          "internalType": "uint256",
          "name": "_planStart",
          "type": "uint256"
        },
        {
          "internalType": "uint256",
          "name": "_planDuration",
          "type": "uint256"
        },
        {
          "internalType": "uint256",
          "name": "_planEnd",
          "type": "uint256"
        }
      ],
      "name": "editPlan",
      "outputs": [],
      "stateMutability": "nonpayable",
      "type": "function"
    },
    {
      "inputs": [
        {
          "internalType": "uint256",
          "name": "_planId",
          "type": "uint256"
        }
      ],
      "name": "getPlanDetails",
      "outputs": [
        {
          "components": [
            {
              "internalType": "uint256",
              "name": "planId",
              "type": "uint256"
            },
            {
              "internalType": "string",
              "name": "planName",
              "type": "string"
            },
            {
              "internalType": "uint256",
              "name": "planCost",
              "type": "uint256"
            },
            {
              "internalType": "uint256",
              "name": "planStart",
              "type": "uint256"
            },
            {
              "internalType": "uint256",
              "name": "planDuration",
              "type": "uint256"
            },
            {
              "internalType": "uint256",
              "name": "planEnd",
              "type": "uint256"
            },
            {
              "internalType": "bool",
              "name": "planValidity",
              "type": "bool"
            },
            {
              "internalType": "uint256",
              "name": "planSubscribers",
              "type": "uint256"
            }
          ],
          "internalType": "struct Plan.planDetails",
          "name": "",
          "type": "tuple"
        }
      ],
      "stateMutability": "view",
      "type": "function"
    },
    {
      "inputs": [
        {
          "internalType": "address",
          "name": "",
          "type": "address"
        }
      ],
      "name": "planControllers",
      "outputs": [
        {
          "internalType": "bool",
          "name": "",
          "type": "bool"
        }
      ],
      "stateMutability": "view",
      "type": "function"
    },
    {
      "inputs": [
        {
          "internalType": "uint256",
          "name": "",
          "type": "uint256"
        }
      ],
      "name": "plans",
      "outputs": [
        {
          "internalType": "uint256",
          "name": "planId",
          "type": "uint256"
        },
        {
          "internalType": "string",
          "name": "planName",
          "type": "string"
        },
        {
          "internalType": "uint256",
          "name": "planCost",
          "type": "uint256"
        },
        {
          "internalType": "uint256",
          "name": "planStart",
          "type": "uint256"
        },
        {
          "internalType": "uint256",
          "name": "planDuration",
          "type": "uint256"
        },
        {
          "internalType": "uint256",
          "name": "planEnd",
          "type": "uint256"
        },
        {
          "internalType": "bool",
          "name": "planValidity",
          "type": "bool"
        },
        {
          "internalType": "uint256",
          "name": "planSubscribers",
          "type": "uint256"
        }
      ],
      "stateMutability": "view",
      "type": "function"
    },
    {
      "inputs": [
        {
          "internalType": "address",
          "name": "_user",
          "type": "address"
        }
      ],
      "name": "removePlanControllers",
      "outputs": [],
      "stateMutability": "nonpayable",
      "type": "function"
    },
    {
      "inputs": [
        {
          "internalType": "address",
          "name": "_ticketContractAddr",
          "type": "address"
        }
      ],
      "name": "ticketContract",
      "outputs": [],
      "stateMutability": "nonpayable",
      "type": "function"
    },
    {
      "inputs": [],
      "name": "ticketContractAddr",
      "outputs": [
        {
          "internalType": "address",
          "name": "",
          "type": "address"
        }
      ],
      "stateMutability": "view",
      "type": "function"
    },
    {
      "inputs": [],
      "name": "withdrawMoney",
      "outputs": [],
      "stateMutability": "nonpayable",
      "type": "function"
    }
  ],
  "bytecode": "0x60806040523480156200001157600080fd5b5033600160006101000a81548173ffffffffffffffffffffffffffffffffffffffff021916908373ffffffffffffffffffffffffffffffffffffffff160217905550600160036000600160009054906101000a900473ffffffffffffffffffffffffffffffffffffffff1673ffffffffffffffffffffffffffffffffffffffff1673ffffffffffffffffffffffffffffffffffffffff16815260200190815260200160002060006101000a81548160ff021916908315150217905550620001186040518060400160405280601d81526020017f506c616e2e736f6c20636f6e7472616374206973206465706c6f7965640000008152506200011e60201b6200129b1760201c565b620002b2565b620001be816040516024016200013591906200028e565b6040516020818303038152906040527f41304fac000000000000000000000000000000000000000000000000000000007bffffffffffffffffffffffffffffffffffffffffffffffffffffffff19166020820180517bffffffffffffffffffffffffffffffffffffffffffffffffffffffff8381831617835250505050620001c160201b60201c565b50565b60008151905060006a636f6e736f6c652e6c6f679050602083016000808483855afa5050505050565b600081519050919050565b600082825260208201905092915050565b60005b838110156200022657808201518184015260208101905062000209565b8381111562000236576000848401525b50505050565b6000601f19601f8301169050919050565b60006200025a82620001ea565b620002668185620001f5565b93506200027881856020860162000206565b62000283816200023c565b840191505092915050565b60006020820190508181036000830152620002aa81846200024d565b905092915050565b61220e80620002c26000396000f3fe6080604052600436106100c25760003560e01c8063925a06c61161007f578063b162061611610059578063b162061614610243578063b8cffca114610287578063c954700b146102b0578063eb2fd735146102d9576100c2565b8063925a06c6146101c6578063ac446002146101ef578063ad5abed814610206576100c2565b806308605d40146100c757806326517b17146100e3578063296db9521461010e5780632d1fbc711461013757806340ada25c146101605780638d22fdd614610189575b600080fd5b6100e160048036038101906100dc91906114ab565b610302565b005b3480156100ef57600080fd5b506100f86104fc565b604051610105919061152c565b60405180910390f35b34801561011a57600080fd5b50610135600480360381019061013091906115ac565b610522565b005b34801561014357600080fd5b5061015e6004803603810190610159919061165b565b61076f565b005b34801561016c57600080fd5b5061018760048036038101906101829190611721565b6109ef565b005b34801561019557600080fd5b506101b060048036038101906101ab9190611721565b610ada565b6040516101bd9190611769565b60405180910390f35b3480156101d257600080fd5b506101ed60048036038101906101e89190611784565b610afa565b005b3480156101fb57600080fd5b50610204610c16565b005b34801561021257600080fd5b5061022d60048036038101906102289190611784565b610cf1565b60405161023a9190611918565b60405180910390f35b34801561024f57600080fd5b5061026a60048036038101906102659190611784565b610e08565b60405161027e989796959493929190611993565b60405180910390f35b34801561029357600080fd5b506102ae60048036038101906102a99190611721565b610ee5565b005b3480156102bc57600080fd5b506102d760048036038101906102d29190611721565b610fd0565b005b3480156102e557600080fd5b5061030060048036038101906102fb9190611a18565b6110a0565b005b60006002600084815260200190815260200160002090508060020154341461035f576040517f08c379a000000000000000000000000000000000000000000000000000000000815260040161035690611ad8565b60405180910390fd5b60018160070160008282546103749190611b27565b92505081905550600081600101805461038c90611bac565b80601f01602080910402602001604051908101604052809291908181526020018280546103b890611bac565b80156104055780601f106103da57610100808354040283529160200191610405565b820191906000526020600020905b8154815290600101906020018083116103e857829003601f168201915b505050505090506000826002015490506000429050600084600401548261042c9190611b27565b9050600460009054906101000a900473ffffffffffffffffffffffffffffffffffffffff1673ffffffffffffffffffffffffffffffffffffffff16633f41cdd087868a8787876040518763ffffffff1660e01b815260040161049396959493929190611bde565b600060405180830381600087803b1580156104ad57600080fd5b505af11580156104c1573d6000803e3d6000fd5b5050505085877f2e3e4253293271e7231cd2d64a3bcc2aabfeb7c377ef8dcc409ae090c5a07cfd60405160405180910390a350505050505050565b600460009054906101000a900473ffffffffffffffffffffffffffffffffffffffff1681565b600360003373ffffffffffffffffffffffffffffffffffffffff1673ffffffffffffffffffffffffffffffffffffffff16815260200190815260200160002060009054906101000a900460ff166105ae576040517f08c379a00000000000000000000000000000000000000000000000000000000081526004016105a590611cb8565b60405180910390fd5b60006002600089815260200190815260200160002090508060030154421061060b576040517f08c379a000000000000000000000000000000000000000000000000000000000815260040161060290611d4a565b60405180910390fd5b600115158160060160009054906101000a900460ff16151514610663576040517f08c379a000000000000000000000000000000000000000000000000000000000815260040161065a90611db6565b60405180910390fd5b60008214156106a7576040517f08c379a000000000000000000000000000000000000000000000000000000000815260040161069e90611e22565b60405180910390fd5b86868260010191906106ba929190611381565b5084816002018190555062015180836106d39190611e42565b816004018190555062015180846106ea9190611e42565b426106f59190611b27565b8160030181905550620151808261070c9190611e42565b816003015461071b9190611b27565b8160050181905550877f94efa39f399f830137b80f93cdde31ef7dd0156e0cb9f374e0a60618f8a6d5bf88888888888860405161075d96959493929190611ed8565b60405180910390a25050505050505050565b600360003373ffffffffffffffffffffffffffffffffffffffff1673ffffffffffffffffffffffffffffffffffffffff16815260200190815260200160002060009054906101000a900460ff166107fb576040517f08c379a00000000000000000000000000000000000000000000000000000000081526004016107f290611cb8565b60405180910390fd5b6000868690501415610842576040517f08c379a000000000000000000000000000000000000000000000000000000000815260040161083990611f80565b60405180910390fd5b6000821415610886576040517f08c379a000000000000000000000000000000000000000000000000000000000815260040161087d90611fec565b60405180910390fd5b60008114156108ca576040517f08c379a00000000000000000000000000000000000000000000000000000000081526004016108c190612058565b60405180910390fd5b600060016108d86000611334565b6108e29190611b27565b905060006002600083815260200190815260200160002090508181600001819055508787826001019190610917929190611381565b5085816002018190555062015180856109309190611e42565b4261093b9190611b27565b816003018190555062015180846109529190611e42565b816004018190555062015180836109699190611e42565b81600301546109789190611b27565b816005018190555060018160060160006101000a81548160ff021916908315150217905550817fcc95fa730aa96e653d21db488dc70df5b959688bc0d4dcde382bf0c7e6e2ea8b898989886040516109d39493929190612078565b60405180910390a26109e56000611342565b5050505050505050565b600160009054906101000a900473ffffffffffffffffffffffffffffffffffffffff1673ffffffffffffffffffffffffffffffffffffffff163373ffffffffffffffffffffffffffffffffffffffff1614610a7f576040517f08c379a0000000000000000000000000000000000000000000000000000000008152600401610a769061212a565b60405180910390fd5b6001600360008373ffffffffffffffffffffffffffffffffffffffff1673ffffffffffffffffffffffffffffffffffffffff16815260200190815260200160002060006101000a81548160ff02191690831515021790555050565b60036020528060005260406000206000915054906101000a900460ff1681565b600360003373ffffffffffffffffffffffffffffffffffffffff1673ffffffffffffffffffffffffffffffffffffffff16815260200190815260200160002060009054906101000a900460ff16610b86576040517f08c379a0000000000000000000000000000000000000000000000000000000008152600401610b7d90611cb8565b60405180910390fd5b6000600260008381526020019081526020016000209050600115158160060160009054906101000a900460ff16151514610bf5576040517f08c379a0000000000000000000000000000000000000000000000000000000008152600401610bec90612196565b60405180910390fd5b60008160060160006101000a81548160ff0219169083151502179055505050565b600360003373ffffffffffffffffffffffffffffffffffffffff1673ffffffffffffffffffffffffffffffffffffffff16815260200190815260200160002060009054906101000a900460ff16610ca2576040517f08c379a0000000000000000000000000000000000000000000000000000000008152600401610c9990611cb8565b60405180910390fd5b60003390508073ffffffffffffffffffffffffffffffffffffffff166108fc479081150290604051600060405180830381858888f19350505050158015610ced573d6000803e3d6000fd5b5050565b610cf9611407565b600260008381526020019081526020016000206040518061010001604052908160008201548152602001600182018054610d3290611bac565b80601f0160208091040260200160405190810160405280929190818152602001828054610d5e90611bac565b8015610dab5780601f10610d8057610100808354040283529160200191610dab565b820191906000526020600020905b815481529060010190602001808311610d8e57829003601f168201915b50505050508152602001600282015481526020016003820154815260200160048201548152602001600582015481526020016006820160009054906101000a900460ff161515151581526020016007820154815250509050919050565b6002602052806000526040600020600091509050806000015490806001018054610e3190611bac565b80601f0160208091040260200160405190810160405280929190818152602001828054610e5d90611bac565b8015610eaa5780601f10610e7f57610100808354040283529160200191610eaa565b820191906000526020600020905b815481529060010190602001808311610e8d57829003601f168201915b5050505050908060020154908060030154908060040154908060050154908060060160009054906101000a900460ff16908060070154905088565b600160009054906101000a900473ffffffffffffffffffffffffffffffffffffffff1673ffffffffffffffffffffffffffffffffffffffff163373ffffffffffffffffffffffffffffffffffffffff1614610f75576040517f08c379a0000000000000000000000000000000000000000000000000000000008152600401610f6c9061212a565b60405180910390fd5b6000600360008373ffffffffffffffffffffffffffffffffffffffff1673ffffffffffffffffffffffffffffffffffffffff16815260200190815260200160002060006101000a81548160ff02191690831515021790555050565b600360003373ffffffffffffffffffffffffffffffffffffffff1673ffffffffffffffffffffffffffffffffffffffff16815260200190815260200160002060009054906101000a900460ff1661105c576040517f08c379a000000000000000000000000000000000000000000000000000000000815260040161105390611cb8565b60405180910390fd5b80600460006101000a81548173ffffffffffffffffffffffffffffffffffffffff021916908373ffffffffffffffffffffffffffffffffffffffff16021790555050565b600360003373ffffffffffffffffffffffffffffffffffffffff1673ffffffffffffffffffffffffffffffffffffffff16815260200190815260200160002060009054906101000a900460ff1661112c576040517f08c379a000000000000000000000000000000000000000000000000000000000815260040161112390611cb8565b60405180910390fd5b6000848490501415611173576040517f08c379a000000000000000000000000000000000000000000000000000000000815260040161116a90611f80565b60405180910390fd5b60008114156111b7576040517f08c379a00000000000000000000000000000000000000000000000000000000081526004016111ae90611fec565b60405180910390fd5b600060016111c56000611334565b6111cf9190611b27565b905060006002600083815260200190815260200160002090508181600001819055508585826001019190611204929190611381565b5083816002018190555042816003018190555062015180836112269190611e42565b816004018190555060018160060160006101000a81548160ff021916908315150217905550817fcc95fa730aa96e653d21db488dc70df5b959688bc0d4dcde382bf0c7e6e2ea8b878787876040516112819493929190612078565b60405180910390a26112936000611342565b505050505050565b611331816040516024016112af91906121b6565b6040516020818303038152906040527f41304fac000000000000000000000000000000000000000000000000000000007bffffffffffffffffffffffffffffffffffffffffffffffffffffffff19166020820180517bffffffffffffffffffffffffffffffffffffffffffffffffffffffff8381831617835250505050611358565b50565b600081600001549050919050565b6001816000016000828254019250508190555050565b60008151905060006a636f6e736f6c652e6c6f679050602083016000808483855afa5050505050565b82805461138d90611bac565b90600052602060002090601f0160209004810192826113af57600085556113f6565b82601f106113c857803560ff19168380011785556113f6565b828001600101855582156113f6579182015b828111156113f55782358255916020019190600101906113da565b5b509050611403919061144e565b5090565b604051806101000160405280600081526020016060815260200160008152602001600081526020016000815260200160008152602001600015158152602001600081525090565b5b8082111561146757600081600090555060010161144f565b5090565b600080fd5b600080fd5b6000819050919050565b61148881611475565b811461149357600080fd5b50565b6000813590506114a58161147f565b92915050565b600080604083850312156114c2576114c161146b565b5b60006114d085828601611496565b92505060206114e185828601611496565b9150509250929050565b600073ffffffffffffffffffffffffffffffffffffffff82169050919050565b6000611516826114eb565b9050919050565b6115268161150b565b82525050565b6000602082019050611541600083018461151d565b92915050565b600080fd5b600080fd5b600080fd5b60008083601f84011261156c5761156b611547565b5b8235905067ffffffffffffffff8111156115895761158861154c565b5b6020830191508360018202830111156115a5576115a4611551565b5b9250929050565b600080600080600080600060c0888a0312156115cb576115ca61146b565b5b60006115d98a828b01611496565b975050602088013567ffffffffffffffff8111156115fa576115f9611470565b5b6116068a828b01611556565b965096505060406116198a828b01611496565b945050606061162a8a828b01611496565b935050608061163b8a828b01611496565b92505060a061164c8a828b01611496565b91505092959891949750929550565b60008060008060008060a087890312156116785761167761146b565b5b600087013567ffffffffffffffff81111561169657611695611470565b5b6116a289828a01611556565b965096505060206116b589828a01611496565b94505060406116c689828a01611496565b93505060606116d789828a01611496565b92505060806116e889828a01611496565b9150509295509295509295565b6116fe8161150b565b811461170957600080fd5b50565b60008135905061171b816116f5565b92915050565b6000602082840312156117375761173661146b565b5b60006117458482850161170c565b91505092915050565b60008115159050919050565b6117638161174e565b82525050565b600060208201905061177e600083018461175a565b92915050565b60006020828403121561179a5761179961146b565b5b60006117a884828501611496565b91505092915050565b6117ba81611475565b82525050565b600081519050919050565b600082825260208201905092915050565b60005b838110156117fa5780820151818401526020810190506117df565b83811115611809576000848401525b50505050565b6000601f19601f8301169050919050565b600061182b826117c0565b61183581856117cb565b93506118458185602086016117dc565b61184e8161180f565b840191505092915050565b6118628161174e565b82525050565b60006101008301600083015161188160008601826117b1565b50602083015184820360208601526118998282611820565b91505060408301516118ae60408601826117b1565b5060608301516118c160608601826117b1565b5060808301516118d460808601826117b1565b5060a08301516118e760a08601826117b1565b5060c08301516118fa60c0860182611859565b5060e083015161190d60e08601826117b1565b508091505092915050565b600060208201905081810360008301526119328184611868565b905092915050565b61194381611475565b82525050565b600082825260208201905092915050565b6000611965826117c0565b61196f8185611949565b935061197f8185602086016117dc565b6119888161180f565b840191505092915050565b6000610100820190506119a9600083018b61193a565b81810360208301526119bb818a61195a565b90506119ca604083018961193a565b6119d7606083018861193a565b6119e4608083018761193a565b6119f160a083018661193a565b6119fe60c083018561175a565b611a0b60e083018461193a565b9998505050505050505050565b60008060008060608587031215611a3257611a3161146b565b5b600085013567ffffffffffffffff811115611a5057611a4f611470565b5b611a5c87828801611556565b94509450506020611a6f87828801611496565b9250506040611a8087828801611496565b91505092959194509250565b7f6d6f6e65792073656e7420213d20706c616e436f737400000000000000000000600082015250565b6000611ac2601683611949565b9150611acd82611a8c565b602082019050919050565b60006020820190508181036000830152611af181611ab5565b9050919050565b7f4e487b7100000000000000000000000000000000000000000000000000000000600052601160045260246000fd5b6000611b3282611475565b9150611b3d83611475565b9250827fffffffffffffffffffffffffffffffffffffffffffffffffffffffffffffffff03821115611b7257611b71611af8565b5b828201905092915050565b7f4e487b7100000000000000000000000000000000000000000000000000000000600052602260045260246000fd5b60006002820490506001821680611bc457607f821691505b60208210811415611bd857611bd7611b7d565b5b50919050565b600060c082019050611bf3600083018961193a565b8181036020830152611c05818861195a565b9050611c14604083018761193a565b611c21606083018661193a565b611c2e608083018561193a565b611c3b60a083018461193a565b979650505050505050565b7f4f6e6c7920506c616e436f6e74726f6c6c65722063616e2063616c6c2074686960008201527f732066756e6374696f6e00000000000000000000000000000000000000000000602082015250565b6000611ca2602a83611949565b9150611cad82611c46565b604082019050919050565b60006020820190508181036000830152611cd181611c95565b9050919050565b7f506c616e2063616e6e6f7420626520656469746564206265636175736520706c60008201527f616e2068617320616c7265616479207374617274656400000000000000000000602082015250565b6000611d34603683611949565b9150611d3f82611cd8565b604082019050919050565b60006020820190508181036000830152611d6381611d27565b9050919050565b7f43616e6e6f74204564697420612044656c6574656420506c616e000000000000600082015250565b6000611da0601a83611949565b9150611dab82611d6a565b602082019050919050565b60006020820190508181036000830152611dcf81611d93565b9050919050565b7f5f706c616e456e642063616e6e6f742062652030000000000000000000000000600082015250565b6000611e0c601483611949565b9150611e1782611dd6565b602082019050919050565b60006020820190508181036000830152611e3b81611dff565b9050919050565b6000611e4d82611475565b9150611e5883611475565b9250817fffffffffffffffffffffffffffffffffffffffffffffffffffffffffffffffff0483118215151615611e9157611e90611af8565b5b828202905092915050565b82818337600083830152505050565b6000611eb78385611949565b9350611ec4838584611e9c565b611ecd8361180f565b840190509392505050565b600060a0820190508181036000830152611ef381888a611eab565b9050611f02602083018761193a565b611f0f604083018661193a565b611f1c606083018561193a565b611f29608083018461193a565b979650505050505050565b7f706c616e4e616d652063616e6e6f7420626520656d7074790000000000000000600082015250565b6000611f6a601883611949565b9150611f7582611f34565b602082019050919050565b60006020820190508181036000830152611f9981611f5d565b9050919050565b7f706c616e4475726174696f6e2063616e6e6f7420626520302064617973000000600082015250565b6000611fd6601d83611949565b9150611fe182611fa0565b602082019050919050565b6000602082019050818103600083015261200581611fc9565b9050919050565b7f706c616e456e642063616e6e6f74206265203020646179730000000000000000600082015250565b6000612042601883611949565b915061204d8261200c565b602082019050919050565b6000602082019050818103600083015261207181612035565b9050919050565b60006060820190508181036000830152612093818688611eab565b90506120a2602083018561193a565b6120af604083018461193a565b95945050505050565b7f4f6e6c79204f776e65722063616e2063616c6c20746869732066756e6374696f60008201527f6e00000000000000000000000000000000000000000000000000000000000000602082015250565b6000612114602183611949565b915061211f826120b8565b604082019050919050565b6000602082019050818103600083015261214381612107565b9050919050565b7f43616e6e6f742064656c65746520612064656c6574656420506c616e00000000600082015250565b6000612180601c83611949565b915061218b8261214a565b602082019050919050565b600060208201905081810360008301526121af81612173565b9050919050565b600060208201905081810360008301526121d0818461195a565b90509291505056fea264697066735822122000210e1d552f4e04eea69ccea80730e81b7351cb0f8cb38994cbe22764dad1e564736f6c634300080a0033",
  "linkReferences": {},
  "deployedLinkReferences": {}
}