{
  "_format": "hh-sol-artifact-1",
  "contractName": "Ticket",
  "sourceName": "contracts/Ticket.sol",
  "abi": [
    {
      "inputs": [],
      "stateMutability": "payable",
      "type": "constructor"
    },
    {
      "anonymous": false,
      "inputs": [
        {
          "indexed": true,
          "internalType": "address",
          "name": "owner",
          "type": "address"
        },
        {
          "indexed": true,
          "internalType": "address",
          "name": "approved",
          "type": "address"
        },
        {
          "indexed": true,
          "internalType": "uint256",
          "name": "tokenId",
          "type": "uint256"
        }
      ],
      "name": "Approval",
      "type": "event"
    },
    {
      "anonymous": false,
      "inputs": [
        {
          "indexed": true,
          "internalType": "address",
          "name": "owner",
          "type": "address"
        },
        {
          "indexed": true,
          "internalType": "address",
          "name": "operator",
          "type": "address"
        },
        {
          "indexed": false,
          "internalType": "bool",
          "name": "approved",
          "type": "bool"
        }
      ],
      "name": "ApprovalForAll",
      "type": "event"
    },
    {
      "anonymous": false,
      "inputs": [
        {
          "indexed": true,
          "internalType": "address",
          "name": "from",
          "type": "address"
        },
        {
          "indexed": true,
          "internalType": "address",
          "name": "to",
          "type": "address"
        },
        {
          "indexed": true,
          "internalType": "uint256",
          "name": "tokenId",
          "type": "uint256"
        }
      ],
      "name": "Transfer",
      "type": "event"
    },
    {
      "anonymous": false,
      "inputs": [
        {
          "indexed": false,
          "internalType": "address",
          "name": "_addresss",
          "type": "address"
        },
        {
          "indexed": true,
          "internalType": "uint256",
          "name": "_tId",
          "type": "uint256"
        }
      ],
      "name": "registerEvent",
      "type": "event"
    },
    {
      "anonymous": false,
      "inputs": [
        {
          "indexed": false,
          "internalType": "address",
          "name": "_from",
          "type": "address"
        },
        {
          "indexed": false,
          "internalType": "address",
          "name": "_to",
          "type": "address"
        },
        {
          "indexed": true,
          "internalType": "uint256",
          "name": "_tId",
          "type": "uint256"
        }
      ],
      "name": "transferEvent",
      "type": "event"
    },
    {
      "inputs": [
        {
          "internalType": "address",
          "name": "to",
          "type": "address"
        },
        {
          "internalType": "uint256",
          "name": "tokenId",
          "type": "uint256"
        }
      ],
      "name": "approve",
      "outputs": [],
      "stateMutability": "nonpayable",
      "type": "function"
    },
    {
      "inputs": [
        {
          "internalType": "address",
          "name": "owner",
          "type": "address"
        }
      ],
      "name": "balanceOf",
      "outputs": [
        {
          "internalType": "uint256",
          "name": "",
          "type": "uint256"
        }
      ],
      "stateMutability": "view",
      "type": "function"
    },
    {
      "inputs": [
        {
          "internalType": "uint256",
          "name": "tokenId",
          "type": "uint256"
        }
      ],
      "name": "getApproved",
      "outputs": [
        {
          "internalType": "address",
          "name": "",
          "type": "address"
        }
      ],
      "stateMutability": "view",
      "type": "function"
    },
    {
      "inputs": [
        {
          "internalType": "uint256",
          "name": "_tId",
          "type": "uint256"
        }
      ],
      "name": "getSubscriber",
      "outputs": [
        {
          "internalType": "address",
          "name": "",
          "type": "address"
        }
      ],
      "stateMutability": "view",
      "type": "function"
    },
    {
      "inputs": [
        {
          "internalType": "uint256",
          "name": "_tId",
          "type": "uint256"
        }
      ],
      "name": "getTicketDetails",
      "outputs": [
        {
          "components": [
            {
              "internalType": "uint256",
              "name": "ticketNum",
              "type": "uint256"
            },
            {
              "internalType": "address",
              "name": "subscriber",
              "type": "address"
            },
            {
              "internalType": "string",
              "name": "planName",
              "type": "string"
            },
            {
              "internalType": "uint256",
              "name": "planId",
              "type": "uint256"
            },
            {
              "internalType": "uint256",
              "name": "subscriptionCost",
              "type": "uint256"
            },
            {
              "internalType": "uint256",
              "name": "subscriptionStart",
              "type": "uint256"
            },
            {
              "internalType": "uint256",
              "name": "subscriptionEnd",
              "type": "uint256"
            },
            {
              "internalType": "uint32",
              "name": "transferCount",
              "type": "uint32"
            }
          ],
          "internalType": "struct Ticket.ticketDetails",
          "name": "",
          "type": "tuple"
        }
      ],
      "stateMutability": "view",
      "type": "function"
    },
    {
      "inputs": [
        {
          "internalType": "address",
          "name": "",
          "type": "address"
        }
      ],
      "name": "hasTicket",
      "outputs": [
        {
          "internalType": "bool",
          "name": "",
          "type": "bool"
        }
      ],
      "stateMutability": "view",
      "type": "function"
    },
    {
      "inputs": [
        {
          "internalType": "address",
          "name": "owner",
          "type": "address"
        },
        {
          "internalType": "address",
          "name": "operator",
          "type": "address"
        }
      ],
      "name": "isApprovedForAll",
      "outputs": [
        {
          "internalType": "bool",
          "name": "",
          "type": "bool"
        }
      ],
      "stateMutability": "view",
      "type": "function"
    },
    {
      "inputs": [],
      "name": "name",
      "outputs": [
        {
          "internalType": "string",
          "name": "",
          "type": "string"
        }
      ],
      "stateMutability": "view",
      "type": "function"
    },
    {
      "inputs": [
        {
          "internalType": "uint256",
          "name": "tokenId",
          "type": "uint256"
        }
      ],
      "name": "ownerOf",
      "outputs": [
        {
          "internalType": "address",
          "name": "",
          "type": "address"
        }
      ],
      "stateMutability": "view",
      "type": "function"
    },
    {
      "inputs": [],
      "name": "register",
      "outputs": [],
      "stateMutability": "nonpayable",
      "type": "function"
    },
    {
      "inputs": [
        {
          "internalType": "address",
          "name": "from",
          "type": "address"
        },
        {
          "internalType": "address",
          "name": "to",
          "type": "address"
        },
        {
          "internalType": "uint256",
          "name": "tokenId",
          "type": "uint256"
        }
      ],
      "name": "safeTransferFrom",
      "outputs": [],
      "stateMutability": "nonpayable",
      "type": "function"
    },
    {
      "inputs": [
        {
          "internalType": "address",
          "name": "from",
          "type": "address"
        },
        {
          "internalType": "address",
          "name": "to",
          "type": "address"
        },
        {
          "internalType": "uint256",
          "name": "tokenId",
          "type": "uint256"
        },
        {
          "internalType": "bytes",
          "name": "_data",
          "type": "bytes"
        }
      ],
      "name": "safeTransferFrom",
      "outputs": [],
      "stateMutability": "nonpayable",
      "type": "function"
    },
    {
      "inputs": [
        {
          "internalType": "address",
          "name": "operator",
          "type": "address"
        },
        {
          "internalType": "bool",
          "name": "approved",
          "type": "bool"
        }
      ],
      "name": "setApprovalForAll",
      "outputs": [],
      "stateMutability": "nonpayable",
      "type": "function"
    },
    {
      "inputs": [
        {
          "internalType": "bytes4",
          "name": "interfaceId",
          "type": "bytes4"
        }
      ],
      "name": "supportsInterface",
      "outputs": [
        {
          "internalType": "bool",
          "name": "",
          "type": "bool"
        }
      ],
      "stateMutability": "view",
      "type": "function"
    },
    {
      "inputs": [],
      "name": "symbol",
      "outputs": [
        {
          "internalType": "string",
          "name": "",
          "type": "string"
        }
      ],
      "stateMutability": "view",
      "type": "function"
    },
    {
      "inputs": [
        {
          "internalType": "uint256",
          "name": "",
          "type": "uint256"
        }
      ],
      "name": "tickets",
      "outputs": [
        {
          "internalType": "uint256",
          "name": "ticketNum",
          "type": "uint256"
        },
        {
          "internalType": "address",
          "name": "subscriber",
          "type": "address"
        },
        {
          "internalType": "string",
          "name": "planName",
          "type": "string"
        },
        {
          "internalType": "uint256",
          "name": "planId",
          "type": "uint256"
        },
        {
          "internalType": "uint256",
          "name": "subscriptionCost",
          "type": "uint256"
        },
        {
          "internalType": "uint256",
          "name": "subscriptionStart",
          "type": "uint256"
        },
        {
          "internalType": "uint256",
          "name": "subscriptionEnd",
          "type": "uint256"
        },
        {
          "internalType": "uint32",
          "name": "transferCount",
          "type": "uint32"
        }
      ],
      "stateMutability": "view",
      "type": "function"
    },
    {
      "inputs": [
        {
          "internalType": "uint256",
          "name": "tokenId",
          "type": "uint256"
        }
      ],
      "name": "tokenURI",
      "outputs": [
        {
          "internalType": "string",
          "name": "",
          "type": "string"
        }
      ],
      "stateMutability": "view",
      "type": "function"
    },
    {
      "inputs": [
        {
          "internalType": "address",
          "name": "from",
          "type": "address"
        },
        {
          "internalType": "address",
          "name": "to",
          "type": "address"
        },
        {
          "internalType": "uint256",
          "name": "tokenId",
          "type": "uint256"
        }
      ],
      "name": "transferFrom",
      "outputs": [],
      "stateMutability": "nonpayable",
      "type": "function"
    },
    {
      "inputs": [
        {
          "internalType": "uint256",
          "name": "_tId",
          "type": "uint256"
        },
        {
          "internalType": "address",
          "name": "_transferTo",
          "type": "address"
        }
      ],
      "name": "transferTicket",
      "outputs": [],
      "stateMutability": "nonpayable",
      "type": "function"
    },
    {
      "inputs": [
        {
          "internalType": "uint256",
          "name": "_tId",
          "type": "uint256"
        },
        {
          "internalType": "string",
          "name": "_planName",
          "type": "string"
        },
        {
          "internalType": "uint256",
          "name": "_planId",
          "type": "uint256"
        },
        {
          "internalType": "uint256",
          "name": "_subscriptionCost",
          "type": "uint256"
        },
        {
          "internalType": "uint256",
          "name": "_subscriptionStart",
          "type": "uint256"
        },
        {
          "internalType": "uint256",
          "name": "_subscriptionEnd",
          "type": "uint256"
        }
      ],
      "name": "updateTicketDetails",
      "outputs": [],
      "stateMutability": "nonpayable",
      "type": "function"
    }
  ],
  "bytecode": "0x610e20604052610d7960808181529062002cc960a03980516200002b91600a9160209091019062000187565b5060408051808201909152600d8082526c1e17ba32bc3a1f1e17b9bb339f60991b60209092019182526200006291600b9162000187565b5060408051808201825260078152665469636b65747360c81b6020808301918252835180850190945260048452635449434b60e01b908401528151919291620000ae9160009162000187565b508051620000c490600190602084019062000187565b505050620001126040518060400160405280601381526020017f5469636b65742e736f6c206465706c6f796564000000000000000000000000008152506200011860201b6200100e1760201c565b620002c2565b62000163816040516024016200012f91906200022d565b60408051601f198184030181529190526020810180516001600160e01b0390811663104c13eb60e21b179091526200016616565b50565b80516a636f6e736f6c652e6c6f67602083016000808483855afa5050505050565b828054620001959062000285565b90600052602060002090601f016020900481019282620001b9576000855562000204565b82601f10620001d457805160ff191683800117855562000204565b8280016001018555821562000204579182015b8281111562000204578251825591602001919060010190620001e7565b506200021292915062000216565b5090565b5b8082111562000212576000815560010162000217565b600060208083528351808285015260005b818110156200025c578581018301518582016040015282016200023e565b818111156200026f576000604083870101525b50601f01601f1916929092016040019392505050565b600181811c908216806200029a57607f821691505b60208210811415620002bc57634e487b7160e01b600052602260045260246000fd5b50919050565b6129f780620002d26000396000f3fe608060405234801561001057600080fd5b506004361061012c5760003560e01c806350b44712116100ad578063a22cb46511610071578063a22cb465146102b1578063b88d4fde146102c4578063c87b56dd146102d7578063e2142fde146102ea578063e985e9c51461030d57600080fd5b806350b447121461023b5780636352211e14610262578063679ebf1a1461027557806370a082311461028857806395d89b41146102a957600080fd5b806323b872dd116100f457806323b872dd146101b657806324c14160146101c957806325df1e77146101e95780633f41cdd01461021557806342842e0e1461022857600080fd5b806301ffc9a71461013157806306fdde0314610159578063081812fc1461016e578063095ea7b3146101995780631aa3a008146101ae575b600080fd5b61014461013f366004611f4c565b610349565b60405190151581526020015b60405180910390f35b61016161039b565b6040516101509190611fc1565b61018161017c366004611fd4565b61042d565b6040516001600160a01b039091168152602001610150565b6101ac6101a7366004612009565b6104ba565b005b6101ac6105d0565b6101ac6101c4366004612033565b61084a565b6101dc6101d7366004611fd4565b61087b565b604051610150919061206f565b6101816101f7366004611fd4565b6000908152600860205260409020600101546001600160a01b031690565b6101ac6102233660046120ee565b6109de565b6101ac610236366004612033565b610a7a565b61024e610249366004611fd4565b610a95565b60405161015098979695949392919061218a565b610181610270366004611fd4565b610b6f565b6101ac6102833660046121e7565b610be6565b61029b610296366004612213565b610dba565b604051908152602001610150565b610161610e41565b6101ac6102bf36600461222e565b610e50565b6101ac6102d2366004612280565b610e5f565b6101616102e5366004611fd4565b610e97565b6101446102f8366004612213565b60096020526000908152604090205460ff1681565b61014461031b36600461235c565b6001600160a01b03918216600090815260056020908152604080832093909416825291909152205460ff1690565b60006001600160e01b031982166380ac58cd60e01b148061037a57506001600160e01b03198216635b5e139f60e01b145b8061039557506301ffc9a760e01b6001600160e01b03198316145b92915050565b6060600080546103aa90612386565b80601f01602080910402602001604051908101604052809291908181526020018280546103d690612386565b80156104235780601f106103f857610100808354040283529160200191610423565b820191906000526020600020905b81548152906001019060200180831161040657829003601f168201915b5050505050905090565b600061043882611054565b61049e5760405162461bcd60e51b815260206004820152602c60248201527f4552433732313a20617070726f76656420717565727920666f72206e6f6e657860448201526b34b9ba32b73a103a37b5b2b760a11b60648201526084015b60405180910390fd5b506000908152600460205260409020546001600160a01b031690565b60006104c582610b6f565b9050806001600160a01b0316836001600160a01b031614156105335760405162461bcd60e51b815260206004820152602160248201527f4552433732313a20617070726f76616c20746f2063757272656e74206f776e656044820152603960f91b6064820152608401610495565b336001600160a01b038216148061054f575061054f813361031b565b6105c15760405162461bcd60e51b815260206004820152603860248201527f4552433732313a20617070726f76652063616c6c6572206973206e6f74206f7760448201527f6e6572206e6f7220617070726f76656420666f7220616c6c00000000000000006064820152608401610495565b6105cb8383611071565b505050565b3360009081526009602052604090205460ff16156106305760405162461bcd60e51b815260206004820152601760248201527f5573657220616c726561647920686173205469636b65740000000000000000006044820152606401610495565b600061063b60075490565b6106469060016123d7565b6000818152600860209081526040918290208381556001810180546001600160a01b031916331790558251808401909352600e8084526d27379020b1ba34bb3290283630b760911b939092019283529293506106a6916002840191611e29565b5060006106b682600001546110df565b90506000600a82600b6040516020016106d193929190612489565b60405160208183030381529060405290506000610716836106f184611187565b6040516020016107029291906124bc565b604051602081830303815290604052611187565b905060008160405160200161072b91906125a2565b60408051601f1981840301815260608301909152603980835290925061075991906128e7602083013961100e565b61078b6040518060400160405280601081526020016f03334b730b62a37b5b2b72aa924901e960851b815250826112ed565b6107ac6040518060600160405280603981526020016129206039913961100e565b6107b63387611332565b6107c0868261134c565b33600090815260096020908152604091829020805460ff1916600117905581516060810190925260298083526107ff92916129999083013985336113d7565b60405133815286907f45d3ff9b6ce572742ea4a64ce7ec2e69e3b16a10d34058badf3ec27a5d938c619060200160405180910390a2610842600780546001019055565b505050505050565b610854338261141e565b6108705760405162461bcd60e51b8152600401610495906125e7565b6105cb838383611504565b6108d26040518061010001604052806000815260200160006001600160a01b031681526020016060815260200160008152602001600081526020016000815260200160008152602001600063ffffffff1681525090565b6000828152600860209081526040918290208251610100810184528154815260018201546001600160a01b031692810192909252600281018054929391929184019161091d90612386565b80601f016020809104026020016040519081016040528092919081815260200182805461094990612386565b80156109965780601f1061096b57610100808354040283529160200191610996565b820191906000526020600020905b81548152906001019060200180831161097957829003601f168201915b50505091835250506003820154602082015260048201546040820152600582015460608201526006820154608082015260079091015463ffffffff1660a09091015292915050565b600087815260086020526040902060068101544211610a4b5760405162461bcd60e51b815260206004820152602360248201527f7469636b657420616c7265616479207375627363726962656420746f206120706044820152623630b760e91b6064820152608401610495565b610a59600282018888611ead565b50600381019490945560048401929092556005830155600690910155505050565b6105cb83838360405180602001604052806000815250610e5f565b60086020526000908152604090208054600182015460028301805492936001600160a01b0390921692610ac790612386565b80601f0160208091040260200160405190810160405280929190818152602001828054610af390612386565b8015610b405780601f10610b1557610100808354040283529160200191610b40565b820191906000526020600020905b815481529060010190602001808311610b2357829003601f168201915b505050600384015460048501546005860154600687015460079097015495969295919450925063ffffffff1688565b6000818152600260205260408120546001600160a01b0316806103955760405162461bcd60e51b815260206004820152602960248201527f4552433732313a206f776e657220717565727920666f72206e6f6e657869737460448201526832b73a103a37b5b2b760b91b6064820152608401610495565b600082815260086020526040902060018101548391906001600160a01b03163314610c6b5760405162461bcd60e51b815260206004820152602f60248201527f6f6e6c79206f776e6572206f6620746865207469636b65742063616e2063616c60448201526e36103a3434b990333ab731ba34b7b760891b6064820152608401610495565b60008481526008602052604090206007810154600263ffffffff90911610610ce15760405162461bcd60e51b8152602060048201526024808201527f4d6178205472616e736665727320636c61696d656420666f722074686973207460448201526337b5b2b760e11b6064820152608401610495565b610cec338587610a7a565b60078101805460019190600090610d0a90849063ffffffff16612638565b82546101009290920a63ffffffff81810219909316919092169190910217905550600181810180546001600160a01b0319166001600160a01b038716908117909155336000818152600960209081526040808320805460ff19908116909155858452928190208054909316909517909155835191825281019190915286917f5d439cf3a1f6215b41908e5b0b300f39679a3ff1cc010691c1d4ec4d0e2a4ebb910160405180910390a25050505050565b60006001600160a01b038216610e255760405162461bcd60e51b815260206004820152602a60248201527f4552433732313a2062616c616e636520717565727920666f7220746865207a65604482015269726f206164647265737360b01b6064820152608401610495565b506001600160a01b031660009081526003602052604090205490565b6060600180546103aa90612386565b610e5b3383836116a0565b5050565b610e69338361141e565b610e855760405162461bcd60e51b8152600401610495906125e7565b610e918484848461176f565b50505050565b6060610ea282611054565b610f085760405162461bcd60e51b815260206004820152603160248201527f45524337323155524953746f726167653a2055524920717565727920666f72206044820152703737b732bc34b9ba32b73a103a37b5b2b760791b6064820152608401610495565b60008281526006602052604081208054610f2190612386565b80601f0160208091040260200160405190810160405280929190818152602001828054610f4d90612386565b8015610f9a5780601f10610f6f57610100808354040283529160200191610f9a565b820191906000526020600020905b815481529060010190602001808311610f7d57829003601f168201915b505050505090506000610fb860408051602081019091526000815290565b9050805160001415610fcb575092915050565b815115610ffd578082604051602001610fe5929190612660565b60405160208183030381529060405292505050919050565b611006846117a2565b949350505050565b611051816040516024016110229190611fc1565b60408051601f198184030181529190526020810180516001600160e01b031663104c13eb60e21b17905261187a565b50565b6000908152600260205260409020546001600160a01b0316151590565b600081815260046020526040902080546001600160a01b0319166001600160a01b03841690811790915581906110a682610b6f565b6001600160a01b03167f8c5be1e5ebec7d5bd14f71427d1e84f3dd0314c0f7b2291e5b200ac8c7c3b92560405160405180910390a45050565b606060006110ec8361189b565b905060006110f9826119c4565b90506060600382111561110d575081611006565b600282111561113d57826040516020016111279190612686565b6040516020818303038152906040529050611006565b6001821115611157578260405160200161112791906126af565b8115611006578260405160200161116e91906126d9565b6040516020818303038152906040529050949350505050565b8051606090806111a7575050604080516020810190915260008152919050565b600060036111b68360026123d7565b6111c0919061271a565b6111cb90600461272e565b905060006111da8260206123d7565b67ffffffffffffffff8111156111f2576111f261226a565b6040519080825280601f01601f19166020018201604052801561121c576020820181803683370190505b5090506000604051806060016040528060408152602001612959604091399050600181016020830160005b868110156112a8576003818a01810151603f601282901c8116860151600c83901c8216870151600684901c831688015192909316870151600891821b60ff94851601821b92841692909201901b91160160e01b835260049092019101611247565b5060038606600181146112c257600281146112d3576112df565b613d3d60f01b6001198301526112df565b603d60f81b6000198301525b505050918152949350505050565b610e5b828260405160240161130392919061274d565b60408051601f198184030181529190526020810180516001600160e01b0316634b5c427760e01b17905261187a565b610e5b828260405180602001604052806000815250611ac7565b61135582611054565b6113b85760405162461bcd60e51b815260206004820152602e60248201527f45524337323155524953746f726167653a2055524920736574206f66206e6f6e60448201526d32bc34b9ba32b73a103a37b5b2b760911b6064820152608401610495565b600082815260066020908152604090912082516105cb92840190611e29565b6105cb8383836040516024016113ef9392919061277b565b60408051601f198184030181529190526020810180516001600160e01b03166395ed019560e01b17905261187a565b600061142982611054565b61148a5760405162461bcd60e51b815260206004820152602c60248201527f4552433732313a206f70657261746f7220717565727920666f72206e6f6e657860448201526b34b9ba32b73a103a37b5b2b760a11b6064820152608401610495565b600061149583610b6f565b9050806001600160a01b0316846001600160a01b031614806114d05750836001600160a01b03166114c58461042d565b6001600160a01b0316145b8061100657506001600160a01b0380821660009081526005602090815260408083209388168352929052205460ff16611006565b826001600160a01b031661151782610b6f565b6001600160a01b03161461157b5760405162461bcd60e51b815260206004820152602560248201527f4552433732313a207472616e736665722066726f6d20696e636f72726563742060448201526437bbb732b960d91b6064820152608401610495565b6001600160a01b0382166115dd5760405162461bcd60e51b8152602060048201526024808201527f4552433732313a207472616e7366657220746f20746865207a65726f206164646044820152637265737360e01b6064820152608401610495565b6115e8600082611071565b6001600160a01b03831660009081526003602052604081208054600192906116119084906127b9565b90915550506001600160a01b038216600090815260036020526040812080546001929061163f9084906123d7565b909155505060008181526002602052604080822080546001600160a01b0319166001600160a01b0386811691821790925591518493918716917fddf252ad1be2c89b69c2b068fc378daa952ba7f163c4a11628f55a4df523b3ef91a4505050565b816001600160a01b0316836001600160a01b031614156117025760405162461bcd60e51b815260206004820152601960248201527f4552433732313a20617070726f766520746f2063616c6c6572000000000000006044820152606401610495565b6001600160a01b03838116600081815260056020908152604080832094871680845294825291829020805460ff191686151590811790915591519182527f17307eab39ab6107e8899845ad3d59bd9653f200f220920489ca2b5937696c31910160405180910390a3505050565b61177a848484611504565b61178684848484611afa565b610e915760405162461bcd60e51b8152600401610495906127d0565b60606117ad82611054565b6118115760405162461bcd60e51b815260206004820152602f60248201527f4552433732314d657461646174613a2055524920717565727920666f72206e6f60448201526e3732bc34b9ba32b73a103a37b5b2b760891b6064820152608401610495565b600061182860408051602081019091526000815290565b905060008151116118485760405180602001604052806000815250611873565b8061185284611bf8565b604051602001611863929190612660565b6040516020818303038152906040525b9392505050565b80516a636f6e736f6c652e6c6f67602083016000808483855afa5050505050565b6060816118bf5750506040805180820190915260018152600360fc1b602082015290565b8160005b81156118e957806118d381612822565b91506118e29050600a8361271a565b91506118c3565b60008167ffffffffffffffff8111156119045761190461226a565b6040519080825280601f01601f19166020018201604052801561192e576020820181803683370190505b509050815b85156119bb576119446001826127b9565b90506000611953600a8861271a565b61195e90600a61272e565b61196890886127b9565b61197390603061283d565b905060008160f81b90508084848151811061199057611990612862565b60200101906001600160f81b031916908160001a9053506119b2600a8961271a565b97505050611933565b50949350505050565b8051600090819081905b80821015611abe5760008583815181106119ea576119ea612862565b01602001516001600160f81b0319169050600160ff1b811015611a1957611a126001846123d7565b9250611aab565b600760fd1b6001600160f81b031982161015611a3a57611a126002846123d7565b600f60fc1b6001600160f81b031982161015611a5b57611a126003846123d7565b601f60fb1b6001600160f81b031982161015611a7c57611a126004846123d7565b603f60fa1b6001600160f81b031982161015611a9d57611a126005846123d7565b611aa86006846123d7565b92505b5082611ab681612822565b9350506119ce565b50909392505050565b611ad18383611cf6565b611ade6000848484611afa565b6105cb5760405162461bcd60e51b8152600401610495906127d0565b60006001600160a01b0384163b15611bed57604051630a85bd0160e11b81526001600160a01b0385169063150b7a0290611b3e903390899088908890600401612878565b6020604051808303816000875af1925050508015611b79575060408051601f3d908101601f19168201909252611b76918101906128b5565b60015b611bd3573d808015611ba7576040519150601f19603f3d011682016040523d82523d6000602084013e611bac565b606091505b508051611bcb5760405162461bcd60e51b8152600401610495906127d0565b805181602001fd5b6001600160e01b031916630a85bd0160e11b149050611006565b506001949350505050565b606081611c1c5750506040805180820190915260018152600360fc1b602082015290565b8160005b8115611c465780611c3081612822565b9150611c3f9050600a8361271a565b9150611c20565b60008167ffffffffffffffff811115611c6157611c6161226a565b6040519080825280601f01601f191660200182016040528015611c8b576020820181803683370190505b5090505b841561100657611ca06001836127b9565b9150611cad600a866128d2565b611cb89060306123d7565b60f81b818381518110611ccd57611ccd612862565b60200101906001600160f81b031916908160001a905350611cef600a8661271a565b9450611c8f565b6001600160a01b038216611d4c5760405162461bcd60e51b815260206004820181905260248201527f4552433732313a206d696e7420746f20746865207a65726f20616464726573736044820152606401610495565b611d5581611054565b15611da25760405162461bcd60e51b815260206004820152601c60248201527f4552433732313a20746f6b656e20616c7265616479206d696e746564000000006044820152606401610495565b6001600160a01b0382166000908152600360205260408120805460019290611dcb9084906123d7565b909155505060008181526002602052604080822080546001600160a01b0319166001600160a01b03861690811790915590518392907fddf252ad1be2c89b69c2b068fc378daa952ba7f163c4a11628f55a4df523b3ef908290a45050565b828054611e3590612386565b90600052602060002090601f016020900481019282611e575760008555611e9d565b82601f10611e7057805160ff1916838001178555611e9d565b82800160010185558215611e9d579182015b82811115611e9d578251825591602001919060010190611e82565b50611ea9929150611f21565b5090565b828054611eb990612386565b90600052602060002090601f016020900481019282611edb5760008555611e9d565b82601f10611ef45782800160ff19823516178555611e9d565b82800160010185558215611e9d579182015b82811115611e9d578235825591602001919060010190611f06565b5b80821115611ea95760008155600101611f22565b6001600160e01b03198116811461105157600080fd5b600060208284031215611f5e57600080fd5b813561187381611f36565b60005b83811015611f84578181015183820152602001611f6c565b83811115610e915750506000910152565b60008151808452611fad816020860160208601611f69565b601f01601f19169290920160200192915050565b6020815260006118736020830184611f95565b600060208284031215611fe657600080fd5b5035919050565b80356001600160a01b038116811461200457600080fd5b919050565b6000806040838503121561201c57600080fd5b61202583611fed565b946020939093013593505050565b60008060006060848603121561204857600080fd5b61205184611fed565b925061205f60208501611fed565b9150604084013590509250925092565b602081528151602082015260018060a01b036020830151166040820152600060408301516101008060608501526120aa610120850183611f95565b915060608501516080850152608085015160a085015260a085015160c085015260c085015160e085015263ffffffff60e08601511681850152508091505092915050565b600080600080600080600060c0888a03121561210957600080fd5b87359650602088013567ffffffffffffffff8082111561212857600080fd5b818a0191508a601f83011261213c57600080fd5b81358181111561214b57600080fd5b8b602082850101111561215d57600080fd5b989b6020929092019a50979860408101359850606081013597506080810135965060a00135945092505050565b8881526001600160a01b0388166020820152610100604082018190526000906121b58382018a611f95565b60608401989098525050608081019490945260a084019290925260c083015263ffffffff1660e0909101529392505050565b600080604083850312156121fa57600080fd5b8235915061220a60208401611fed565b90509250929050565b60006020828403121561222557600080fd5b61187382611fed565b6000806040838503121561224157600080fd5b61224a83611fed565b91506020830135801515811461225f57600080fd5b809150509250929050565b634e487b7160e01b600052604160045260246000fd5b6000806000806080858703121561229657600080fd5b61229f85611fed565b93506122ad60208601611fed565b925060408501359150606085013567ffffffffffffffff808211156122d157600080fd5b818701915087601f8301126122e557600080fd5b8135818111156122f7576122f761226a565b604051601f8201601f19908116603f0116810190838211818310171561231f5761231f61226a565b816040528281528a602084870101111561233857600080fd5b82602086016020830137600060208483010152809550505050505092959194509250565b6000806040838503121561236f57600080fd5b61237883611fed565b915061220a60208401611fed565b600181811c9082168061239a57607f821691505b602082108114156123bb57634e487b7160e01b600052602260045260246000fd5b50919050565b634e487b7160e01b600052601160045260246000fd5b600082198211156123ea576123ea6123c1565b500190565b8054600090600181811c908083168061240957607f831692505b602080841082141561242b57634e487b7160e01b600052602260045260246000fd5b81801561243f57600181146124505761247d565b60ff1986168952848901965061247d565b60008881526020902060005b868110156124755781548b82015290850190830161245c565b505084890196505b50505050505092915050565b600061249582866123ef565b84516124a5818360208901611f69565b6124b1818301866123ef565b979650505050505050565b7f7b226e616d65223a2044696e6f4c616273222c20227469636b65644944223a208152601160f91b6020820152600083516124fe816021850160208801611f69565b7f222c20226465736372697074696f6e223a202253756254726565202d205375626021918401918201527f736372697074696f6e204d6164652045617379222c2022696d616765223a202260418201527f646174613a696d6167652f7376672b786d6c3b6261736536342c0000000000006061820152835161258781607b840160208801611f69565b61227d60f01b607b9290910191820152607d01949350505050565b7f646174613a6170706c69636174696f6e2f6a736f6e3b6261736536342c0000008152600082516125da81601d850160208701611f69565b91909101601d0192915050565b60208082526031908201527f4552433732313a207472616e736665722063616c6c6572206973206e6f74206f6040820152701ddb995c881b9bdc88185c1c1c9bdd9959607a1b606082015260800190565b600063ffffffff808316818516808303821115612657576126576123c1565b01949350505050565b60008351612672818460208801611f69565b835190830190612657818360208801611f69565b600360fc1b8152600082516126a2816001850160208701611f69565b9190910160010192915050565b61030360f41b8152600082516126cc816002850160208701611f69565b9190910160020192915050565b6203030360ec1b8152600082516126f7816003850160208701611f69565b9190910160030192915050565b634e487b7160e01b600052601260045260246000fd5b60008261272957612729612704565b500490565b6000816000190483118215151615612748576127486123c1565b500290565b6040815260006127606040830185611f95565b82810360208401526127728185611f95565b95945050505050565b60608152600061278e6060830186611f95565b82810360208401526127a08186611f95565b91505060018060a01b0383166040830152949350505050565b6000828210156127cb576127cb6123c1565b500390565b60208082526032908201527f4552433732313a207472616e7366657220746f206e6f6e20455243373231526560408201527131b2b4bb32b91034b6b83632b6b2b73a32b960711b606082015260800190565b6000600019821415612836576128366123c1565b5060010190565b600060ff821660ff84168060ff0382111561285a5761285a6123c1565b019392505050565b634e487b7160e01b600052603260045260246000fd5b6001600160a01b03858116825284166020820152604081018390526080606082018190526000906128ab90830184611f95565b9695505050505050565b6000602082840312156128c757600080fd5b815161187381611f36565b6000826128e1576128e1612704565b50069056fe0a2d2d2d2d2d2d2d2d2d2d2d2d2d2d2d2d2d2d2d2d2d2d2d2d2d2d2d2d2d2d2d2d2d2d2d2d2d2d2d2d2d2d2d2d2d2d2d2d2d2d2d2d2d2d2d2d2d2d2d2d2d2d2d2d2d2d2d2d2d2d2d2d2d2d2d2d2d2d2d2d2d2d2d2d2d2d2d2d2d2d2d2d2d2d2d2d2d2d2d2d2d2d2d2d2d2d2d2d2d2d2d2d0a4142434445464748494a4b4c4d4e4f505152535455565758595a6162636465666768696a6b6c6d6e6f707172737475767778797a303132333435363738392b2f416e207469636b657420772f2049442023257320686173206265656e206d696e74656420746f202573a2646970667358221220d441ae90455d650a0dee44dad0817ce295652404952ad7c9b5cf43deb641c17364736f6c634300080a00333c73766720786d6c6e733d22687474703a2f2f7777772e77332e6f72672f323030302f737667222077696474683d2235303022206865696768743d22333030223e3c706174682066696c6c3d2275726c282361292220643d224d302030683530307633303048307a222f3e3c646566733e3c66696c7465722069643d22622220636f6c6f722d696e746572706f6c6174696f6e2d66696c746572733d2273524742222066696c746572556e6974733d227573657253706163654f6e55736522206865696768743d22333030222077696474683d22353030223e3c666544726f70536861646f772064783d2230222064793d22312220737464446576696174696f6e3d22322220666c6f6f642d6f7061636974793d222e323235222077696474683d22302522206865696768743d223025222f3e3c2f66696c7465723e3c2f646566733e3c73766720783d2231302220793d2235223e3c706174682066696c7465723d2275726c28236229222066696c6c3d22236666662220643d224d37322e3836332034322e39343961342e33383220342e3338322030203020302d342e33393420306c2d31302e30383120362e3033322d362e383520332e3933342d31302e30383120362e30333261342e33383220342e3338322030203020312d342e33393420306c2d382e3031332d342e37323161342e353220342e35322030203020312d312e3538392d312e36313620342e353420342e35342030203020312d2e3630382d322e313837762d392e333161342e323720342e3237203020302031202e3537322d322e32303820342e323520342e323520302030203120312e3632352d312e3539356c372e3838342d342e353961342e33383220342e33383220302030203120342e33393420306c372e38383420342e353961342e353220342e353220302030203120312e35383920312e36313620342e353420342e3534203020302031202e36303820322e31383776362e3033326c362e38352d342e303635762d362e30333261342e323720342e32372030203020302d2e3537322d322e32303820342e323520342e32352030203020302d312e3632352d312e3539354c34312e3435362032342e353961342e33383220342e3338322030203020302d342e33393420306c2d31342e38363420382e36353561342e323520342e32352030203020302d312e36323520312e35393520342e32373320342e3237332030203020302d2e35373220322e3230387631372e34343161342e323720342e3237203020302030202e35373220322e32303820342e323520342e323520302030203020312e36323520312e3539356c31342e38363420382e36353561342e33383220342e33383220302030203020342e33393420306c31302e3038312d352e39303120362e38352d342e3036352031302e3038312d352e39303161342e33383220342e33383220302030203120342e33393420306c372e38383420342e353961342e353220342e353220302030203120312e35383920312e36313620342e353420342e3534203020302031202e36303820322e31383776392e33313161342e323720342e32372030203020312d2e35373220322e32303820342e323520342e32352030203020312d312e36323520312e3539356c2d372e38383420342e37323161342e33383220342e3338322030203020312d342e33393420306c2d372e3838342d342e353961342e353220342e35322030203020312d312e3538392d312e36313620342e353320342e35332030203020312d2e3630382d322e313837762d362e3033326c2d362e383520342e30363576362e30333261342e323720342e3237203020302030202e35373220322e32303820342e323520342e323520302030203020312e36323520312e3539356c31342e38363420382e36353561342e33383220342e33383220302030203020342e33393420306c31342e3836342d382e36353561342e35343520342e35343520302030203020322e3139382d332e3830335635352e35333861342e323720342e32372030203020302d2e3537322d322e32303820342e323520342e32352030203020302d312e3632352d312e3539356c2d31342e3939332d382e3738367a222f3e3c2f7376673e3c646566733e3c6c696e6561724772616469656e742069643d2261222078313d2230222079313d2230222078323d2231303025222079323d22302522206772616469656e74556e6974733d227573657253706163654f6e55736522206772616469656e745472616e73666f726d3d22726f7461746528353529223e3c73746f70206f66667365743d222e31222073746f702d636f6c6f723d2223384132333837222073746f702d6f7061636974793d222e3938222f3e3c73746f70206f66667365743d222e38222073746f702d636f6c6f723d2223453934303537222073746f702d6f7061636974793d222e3938222f3e3c73746f70206f66667365743d2231222073746f702d636f6c6f723d2223463237313231222073746f702d6f7061636974793d222e3938222f3e3c2f6c696e6561724772616469656e743e3c2f646566733e3c73766720783d223338352220793d22313930222077696474683d22393022206865696768743d223930223e3c706174682066696c7465723d2275726c28236229222066696c6c3d22236666662220643d224d35332e353820352e3434396133302e3438342033302e3438342030203020302d372e39313620312e303434632d382e36343820322e33322d32302e35313720392e3634382d32392e33352031382e37303443372e3438312033342e32353320312e3833342034342e383920342e31392035332e36393663322e34313320392e3031352031312e33382031372e35342032322e3037322032332e3036352031302e36393220352e3532362032332e30323420372e3938372033312e34383120352e3731394336362e322038302e3231312037342e3638312037322e3230352038302e32372036322e33333663352e3538392d392e38363820382e3234362d32312e34393820352e3830362d33302e3631334338312e3834372031352e3931342036382e31383320352e3434352035332e35383120352e3434397a6d2d322e34333920352e36353263342e3230322e30363220372e35353620312e343520392e30363920342e31343220332e30323620352e3338342d322e3436312031332e3935392d31322e3236312031392e3135352d392e37393920352e3139352d32302e31393920352e3033382d32332e3232352d2e33343673322e3436372d31332e39362031322e3236362d31392e31353563342e392d322e35393820392e3934392d332e3835382031342e31352d332e3739367a6d33302e3933322032312e35363163342e3536342031372e3035332d392e38392034312e3937352d32352e3835362034362e3235382d392e37303820322e3630352d32332e3932392d312e3336312d33342e3631322d382e3730312032342e3032332031302e3931382035362e32373420322e312036302e3436392d33372e3535377a6d2d36352e30363620332e35303561362e36333420362e36333420302030203120362e36333620362e36333620362e36333820362e3633382030203120312d31332e323737203020362e36333820362e36333820302030203120362e3634312d362e3633367a222f3e3c2f7376673e3c7465787420783d223331352220793d2236302220666f6e742d73697a653d223430222066696c6c3d2223666666222066696c7465723d2275726c282362292220666f6e742d66616d696c793d22506c7573204a616b617274612053616e732c44656a6156752053616e732c4e6f746f20436f6c6f7220456d6f6a692c4170706c6520436f6c6f7220456d6f6a692c73616e732d73657269662220666f6e742d7765696768743d22626f6c64223e737562547265653c2f746578743e3c7465787420783d223138332220793d2239332220666f6e742d73697a653d223233222066696c6c3d2223666666222066696c7465723d2275726c282362292220666f6e742d66616d696c793d22506c7573204a616b617274612053616e732c44656a6156752053616e732c4e6f746f20436f6c6f7220456d6f6a692c4170706c6520436f6c6f7220456d6f6a692c73616e732d73657269662220666f6e742d7765696768743d22626f6c64223e537562736372697074696f6e73204d61646520456173793c2f746578743e3c7465787420783d2232352220793d223233302220666f6e742d73697a653d223338222066696c6c3d2223666666222066696c7465723d2275726c282362292220666f6e742d66616d696c793d22506c7573204a616b617274612053616e732c44656a6156752053616e732c4e6f746f20436f6c6f7220456d6f6a692c4170706c6520436f6c6f7220456d6f6a692c73616e732d73657269662220666f6e742d7765696768743d22626f6c64223e44696e6f4c6162733c2f746578743e3c7465787420783d2232352220793d223237302220666f6e742d73697a653d223238222066696c6c3d2223666666222066696c7465723d2275726c282362292220666f6e742d66616d696c793d22506c7573204a616b617274612053616e732c44656a6156752053616e732c4e6f746f20436f6c6f7220456d6f6a692c4170706c6520436f6c6f7220456d6f6a692c73616e732d73657269662220666f6e742d7765696768743d22626f6c64223e23",
  "linkReferences": {},
  "deployedLinkReferences": {}
}